:100000000C94AD000C94D5000C94D5000C94D50044
:100010000C94D5000C94D5000C94D5000C94D5000C
:100020000C94D5000C94D5000C94D5000C94D500FC
:100030000C94D5000C94D5000C94D5000C94D500EC
:100040000C94DF0C0C94D5000C94680B0C94420BB0
:100050000C94D5000C94D5000C94D5000C94D500CC
:100060000C94D5000C94D500EF1EFB1F31206F209F
:1000700095205E21B1216622662208000000BE9212
:100080002449123EABAAAA2ABECDCCCC4C3E0000DD
:100090000080BEABAAAAAA3E00000000BF0000007C
:1000A000803F0000000000084178D3BB4387D11394
:1000B0003D190E3CC3BD4282AD2B3E68EC8276BE3C
:1000C000D98FE1A93E4C80EFFFBE01C4FF7F3F0006
:1000D0000000000007634236B79BD8A71A3968565C
:1000E00018AEBAAB558C1D3CB7CC5763BD6DEDFD5A
:1000F000753EF6177231BF000000803F000000001F
:10010000240027002A0000000000250028002B0002
:100110000000000023002600290004040404040455
:1001200004040202020202020303030303030102A6
:100130000408102040800102040810200102040875
:100140001020000000080002010000030407000066
:100150000000000000007124702411241FBECFEFA6
:10016000D8E0DEBFCDBF13E0A0E0B1E0E2E4FBE504
:1001700002C005900D92A433B107D9F727E0A4E39C
:10018000B3E001C01D92A334B207E1F710E0CCEA5E
:10019000D0E004C02197FE010E94682DCB3AD10720
:1001A000C9F70E94DD160C94942D0C9400008F92D8
:1001B0009F92AF92BF92CF92DF92EF92FF920F93F6
:1001C0001F93CF93DF93CBE2D6E040E8D42E01EC2F
:1001D00016E054E1C52E80E493E00E94BC08892B10
:1001E00009F4C4C080E493E00E94AE088E35910506
:1001F00009F09FC0DE01ED2D1D92EA95E9F73BE283
:10020000E32E36E0F32E0E94D30C609348037093E4
:10021000490380934A0390934B03E0914003F0918C
:1002200041030284F385E02D80E493E0099597FD76
:100230000CC08A30910539F560E470E08BE296E0FD
:100240000E94732D009749F5C6CF0E94D30C809071
:10025000480390904903A0904A03B0904B03DC01FF
:10026000CB0188199909AA09BB0980904403909091
:100270004503A0904603B090470388159905AA0549
:10028000BB0558F2D9CFD7018D937D01BAEAEB16A1
:10029000B6E0FB0609F0B7CFCFCFAC014B525640CA
:1002A000FC018181811197CFD801ED2D1D92EA9536
:1002B000E9F75527415051096CE276E081EC96E070
:1002C0000E94852D64E276E081EC96E00E94AC28E5
:1002D000009709F480CFDC012C91243631F02337CC
:1002E00009F079CFE090260602C0E0902506912C17
:1002F000F12C9394A92CB12CF501EE0FFF1FE354C0
:10030000F94F40815181DA012C2D1D922A95E9F790
:10031000BC01808191810E947E2D64E276E080E0C4
:1003200090E00E94AC28EA14FB0444F0009709F71F
:1003300052CF80E493E00E949A084DCF892B09F0B8
:100340004ACFE091BF06F091C0068081843639F033
:10035000833709F040CF1092B40583E704C081E0F1
:100360008093B40584E60E94B21635CFDF91CF9119
:100370001F910F91FF90EF90DF90CF90BF90AF90C3
:100380009F908F900895CF92DF92EF92FF92CF933C
:10039000DF93EC016093BB000E94D30C6B017C01E6
:1003A00084E88093BC008091BC0087FD1BC08FA1B6
:1003B00098A5892BC1F30E94D30CAB01BC014C1949
:1003C0005D096E097F098FA198A5A0E0B0E04817EC
:1003D00059076A077B0738F3CE010E943C0F23E0E0
:1003E00030E01AC08091B900887F883299F08091FE
:1003F000B9008091B900887F803331F4CE010E942A
:100400004F0F24E030E008C0CE010E943C0F23E6ED
:1004100030E002C022E030E0398328832230310509
:1004200061F02330310561F02430310519F487E0A3
:1004300090E008C083E690E005C080E090E002C054
:1004400086E090E0DF91CF91FF90EF90DF90CF902A
:1004500008958F929F92AF92BF92CF92DF92EF92C8
:10046000FF920F931F93CF93DF938C01F62EE42E10
:10047000D22E0E94D30C4B015C0184EA8093BC0015
:100480008091BC0087FD1DC0F80187A190A5892B34
:10049000B9F30E94D30CAB01BC01481959096A0990
:1004A0007B09F80187A190A5A0E0B0E048175907A3
:1004B0006A077B0728F3C8010E943C0FC3E0D0E025
:1004C0000DC08091B900887F883031F08091B900EB
:1004D000887F803109F064C0C0E0D0E0F801D183AA
:1004E000C083209729F0D11055C0C1E0D0E07EC074
:1004F0006F2D660FE11001C06F5F6093BB000E941B
:10050000D30C6B017C0184E88093BC008091BC001B
:1005100087FD1DC0F80187A190A5892BB9F30E9422
:10052000D30CAB01BC014C195D096E097F09F801C0
:1005300087A190A5A0E0B0E0481759076A077B079C
:1005400028F3C8010E943C0F83E090E00CC080912A
:10055000B900887F883129F08091B900887F803484
:1005600069F582E090E0F801918380838230910503
:10057000E9F18430910541F08530910541F0039710
:1005800061F0C3E6D0E032C0C4E0D0E02FC0C5E0E7
:10059000D0E02CC0C2E0D0E029C0C3E0D0E026C04B
:1005A0008091B900887F883331F4C8010E943C0FE4
:1005B000C5E0D0E093CFC3E6D0E090CF8091B90002
:1005C0008091B900887F803229F08091B900887FBE
:1005D000883431F4C8010E944F0F84E090E0C3CF0B
:1005E000C8010E943C0F83E690E0BDCFCE01DF91B1
:1005F000CF911F910F91FF90EF90DF90CF90BF9020
:10060000AF909F908F9008950F931F93CF93DF9398
:10061000EC01042F122F20E041E00E9429029B836D
:100620008A830097A9F4602FCE010E94C3019B83A7
:100630008A83009769F4612FCE010E94C3019B83D6
:100640008A83009729F4CE010E9401109B838A833C
:10065000DF91CF911F910F910895EF92FF920F9329
:100660001F93CF93DF93EC018B01262F220F220FD4
:10067000220F7C0188E4E80EF11C48896881F701AB
:10068000808191810E940403892BA9F4980185E05F
:10069000369527958A95E1F749896881F701808128
:1006A00091810E94040331E020E0892B09F430E0BD
:1006B000832F922F02C081E090E0DF91CF911F91B4
:1006C0000F91FF90EF900895EF92FF920F931F9379
:1006D000CF93DF93EC01CA967C018E0105571F4F23
:1006E0006623F1F1FE01E655FE4F60817181828142
:1006F00093810E94502B6115710581F09B0140E0B0
:1007000050E0FE01E957FF4F608171818281938142
:100710000E94392AF8013183208305C08FEF9FEFB3
:10072000F80191838083F80160817181C7010E9483
:100730002D03892B11F080E031C0FE01E759FE4FF7
:1007400060E080810E94C60BFE01E559FE4F61E02A
:1007500080810E94C60BC956DE4F81E088831EC08F
:100760008FEF9FEFF801918380836FEF7FEFC701D9
:100770000E942D03892BF9F6FE01E759FE4F61E037
:1007800080810E94C60BFE01E559FE4F60E080812A
:100790000E94C60BC956DE4F188281E0DF91CF91CF
:1007A0001F910F91FF90EF900895EF92FF920F939A
:1007B0001F93CF93DF93FC01E956FE4F2081222344
:1007C00089F1EC01739660817181828193810E942D
:1007D000502B7E012AE3E20EF11C8E0105571F4FBC
:1007E0006115710579F0C957DF4F9B0140E050E07A
:1007F000688179818A819B810E94392AF80131833D
:10080000208305C08FEF9FEFF80191838083F8016B
:1008100060817181C7010E942D0321E0892B19F0AD
:1008200020E001C021E0822FDF91CF911F910F9135
:10083000FF90EF900895CF92DF92EF92FF920F9387
:100840001F93CF93DF93CDB7DEB729970FB6F894F8
:10085000DEBF0FBECDBF20910505309106052330C8
:10086000310509F431C144F42130310581F02230E1
:10087000310509F4BFC085C22530310509F4C7C16F
:100880000CF494C12630310509F445C27AC2883689
:10089000B9F0833721F0863609F073C265C0E09164
:1008A0000A04F0910B04878D90A1019709F069C2A9
:1008B0000E94601481E08093080582E090E05DC2B0
:1008C00080917C05E0910A04F0910B048823A9F043
:1008D000878D90A1029709F054C20E94D30C6093B7
:1008E0000E0570930F05809310059093110521E07C
:1008F0002093090510920A0553C0878D90A1039794
:1009000009F03FC280910B0581112BC061E08091FD
:1009100070050E94C60B81E080937C051092DC0478
:100920001092DD041092DE041092DF04E091C20404
:10093000F091C30480819181A281B3818093D80416
:100940009093D904A093DA04B093DB040E94D30CF3
:100950006093C8047093C9048093CA049093CB0435
:1009600010C210920B050DC280919D05E0910A0402
:10097000F0910B04882319F1878D90A1029709F05B
:1009800000C20E94D30C60930E0570930F058093F4
:100990001005909311051092090521E020930A0596
:1009A0008091F7049091F80468EE73E00E94542D52
:1009B000609316052093080587E090E0DEC1878DDF
:1009C00090A1039709F0DDC180910C0581110FC042
:1009D00010E08091F204181708F0D3C161E086E0BE
:1009E00094E00E9464038111CCC11F5FF2CF10928A
:1009F0000C05C7C1E0910A04F0910B04278D30A1CA
:100A00002130310509F0BDC18A330CF40CC18436A4
:100A100009F479C1833709F0B4C180916505882351
:100A200009F44AC0C0906805D0906905E0906A0555
:100A3000F0906B05209185053091860540918705E2
:100A400050918805C701B6010E947F2B181624F427
:100A500011E010930D0573C020918105309182053E
:100A60004091830550918405C701B6010E94E0289A
:100A700087FF1AC011E010930D051093080588E058
:100A800090E090930605809305050E94D30C609337
:100A90005C0570935D0580935E0590935F051093F0
:100AA0005A0510925B056DC1C0928F05D0929005DA
:100AB000E0929105F09292050E94601481E080938B
:100AC000080583E090E059C1E0910A04F0910B041D
:100AD000278D30A12130310509F053C18A335CF4F0
:100AE00080330CF05BC08E3209F04BC163E675E0D9
:100AF00082E695E00DC1843609F455C0833709F0CC
:100B000040C180916505882309F4F3C0C090680551
:100B1000D0906905E0906A05F0906B052091A305DF
:100B20003091A4054091A5055091A605C701B601D5
:100B30000E947F2B181644F410920D0511E01093BB
:100B4000080589E090E09DCF20919F053091A00598
:100B50004091A1055091A205C701B6010E94E0286D
:100B600087FF04C010920D0511E087CFC092B00539
:100B7000D092B105E092B205F092B30510E08091F9
:100B8000F204181708F0B5C0B701A60186E094E09A
:100B90000E94D5038111ADC01F5FF1CF43E655E040
:100BA00062E675E0ADC082E695E0AFC0E0910A0470
:100BB000F0910B04078D10A10130110509F0E1C07F
:100BC0008233B9F03CF4813309F0DBC081E08093DB
:100BD0003E0512C08333A9F0833709F0D2C00E94CA
:100BE000601481E0809308051093060500930505C5
:100BF000C8C010923E0581E08093080585E090E032
:100C0000BCC081E08093080586E090E0B6C0E0912A
:100C10000A04F0910B04278D30A12130310509F031
:100C2000B0C08A335CF480330CF066C08E3209F0B9
:100C3000A8C061E675E080E695E06AC0843609F4F4
:100C400062C0833709F09DC080916505882309F44F
:100C500050C0009130041091310420913204309141
:100C60003304409168055091690560916A0570915F
:100C70006B05F0903E054D835E836F837887098313
:100C80001A832B833C838CE094E00E94910D89872A
:100C9000FF2099F080910D04BE01675F7F4F90E0C7
:100CA0000E945D0D80910E04BE016B5F7F4F90E04E
:100CB0000E94290D80910F0412C080911004BE0182
:100CC000675F7F4F90E00E945D0D80911104BE012F
:100CD0006B5F7F4F90E00E94290D80911204BE014E
:100CE0006F5F7F4F90E00E94290D8CE094E00E949E
:100CF000430E0E9460143CC041E655E060E675E09A
:100D00000E94B2123EC080E695E00E94931339C063
:100D10000E94CC1136C0E0910A04F0910B04278D9B
:100D200030A12130310569F5853359F580910D04E5
:100D300090E00E94711480910E0490E00E94711462
:100D400080910F0490E00E9471148091100490E053
:100D50000E9471148091110490E00E94711480919E
:100D6000120490E00E9471148CE094E00E94430E03
:100D700081E08093080584E090E0909306058093DD
:100D8000050529960FB6F894DEBF0FBECDBFDF91E3
:100D9000CF911F910F91FF90EF90DF90CF9008952A
:100DA000FC0124A143A161A587A190A50E94040391
:100DB00021E0892B09F020E0822F0895FC01809129
:100DC0003F0320913D03281B20933E03811103C064
:100DD00010923E0308959FEF980F90933F03E20F08
:100DE000F11D85810895EF92FF921F93CF93DF93BA
:100DF000EC017C0182E8E80EF11CF7018081918111
:100E00009C012B5F3F4FF69740816AAD0E946E15A3
:100E1000892B09F03FC0F701808191810E94DE0695
:100E2000182FF701808191819C012B5F3F4FF5972F
:100E300040816AAD0E946E15892B61F5F7018081B2
:100E400091810E94DE06212F30E0322F2227282BAD
:100E5000FE01E957FF4F43E0369527954A95E1F7A4
:100E600040E050E060817181828193810E94392A43
:100E7000FE01E357FF4F31832083CA55DE4FB9018E
:100E800080E090E00E94E528688379838A839B83D1
:100E900081E001C080E0DF91CF911F91FF90EF9042
:100EA00008958F929F92AF92BF92CF92DF92EF926E
:100EB000FF920F931F93CF93DF93EC0169A50FA1CE
:100EC00018A510923F0310923E0385E0F801848339
:100ED00020E040E0C8010E942902F8019383828348
:100EE000892B09F0C5C06801F5E0CF0ED11CF12CAB
:100EF000F8018481F81234C060E0C8010E94850FB7
:100F0000F801918380838430910589F083309105C5
:100F100089F08530910529F0029731F48BE090E05B
:100F20000BC089E090E008C083E690E005C080E057
:100F300090E002C086E090E0F80193838283892BE1
:100F400009F096C08091BB00F60181936F01F39484
:100F5000F0923F03F0923D03F6E0FF12C9CF04C0C8
:100F6000C8010E94DD0FE8CFC8010E940110F801FE
:100F700093838283892B09F07BC06E01F5E1CF0E4C
:100F8000D11C8E01055E1F4F80913F03882309F419
:100F90006FC08FA198A50E94DE06F60181936F01B4
:100FA000E017F10789F75E01F6E0AF0EB11CED889E
:100FB000EB8EFE88FC8E8F88088D0D8F198D1E8F0D
:100FC0009A8C42E0B601C5010E947C0D881250C087
:100FD00042E0BE01635E7F4FC5010E947C0D981206
:100FE00047C06F2D70E07E2980E090E00E94E528E8
:100FF00023E330E04FE25BE30E94462920E030E04B
:1010000044E352E40E946A2A6B017C016EA77FA729
:1010100088AB99AB812F90E0902BBC0180E090E0F1
:101020000E94E52825EB30E048EC5AE30E9446296F
:101030006AA77BA78CA79DA78E010B571E4F2AA9D5
:101040003BA94CA95DA90E9446292EA93FA948ADFC
:1010500059AD0E946B2AF801608371838283938368
:10106000CE56DE4FC882D982EA82FB8281E001C07F
:1010700080E0DF91CF911F910F91FF90EF90DF9073
:10108000CF90BF90AF909F908F900895FC0165A383
:10109000662319F0449A459A02C044984598809175
:1010A000B9008E7F8093B9008091B9008D7F8093C5
:1010B000B90088E48093B80084E48093BC0008956C
:1010C000CF92DF92EF92FF920F931F93CF93DF9314
:1010D0006C017A018B01C0E0D0E0CE15DF0589F00C
:1010E000D8016D918D01D601ED91FC910190F081B7
:1010F000E02DC6010995892B11F47E0102C02196CD
:10110000ECCFC701DF91CF911F910F91FF90EF902E
:10111000DF90CF900895FC01538D448D252F30E052
:10112000842F90E0821B930B541710F0CF960895F4
:1011300001970895FC01918D828D981761F0828D41
:10114000DF01A80FB11D5D968C91928D9F5F9F73FB
:10115000928F90E008958FEF9FEF0895FC01918D9D
:10116000828D981731F0828DE80FF11D858D90E00A
:1011700008958FEF9FEF0895FC01918D228D892FA7
:1011800090E0805C9F4F821B91098F73992708958F
:1011900080E493E00E94BC0821E0892B09F420E060
:1011A000822F0895FC01848DDF01A80FB11DA35A81
:1011B000BF4F2C91848D90E001968F739927848F77
:1011C000A689B7892C93A089B1898C9180648C936E
:1011D000938D848D981306C00288F389E02D808159
:1011E0008F7D80830895EF92FF920F931F93CF938B
:1011F000DF93EC0181E0888F9B8D8C8D981305C067
:10120000E889F989808185FD24C0F62E0B8D10E0D8
:101210000F5F1F4F0F731127E02E8C8DE8120CC04B
:101220000FB607FCFACFE889F989808185FFF5CFF1
:10123000CE010E94D208F1CF8B8DFE01E80FF11D87
:10124000E35AFF4FF0820B8FEA89FB89808180622D
:1012500007C0EE89FF896083E889F989808180640D
:10126000808381E090E0DF91CF911F910F91FF90FB
:10127000EF900895CF93DF93EC01888D8823C9F018
:10128000EA89FB89808185FD05C0A889B9898C918F
:1012900086FD0FC00FB607FCF5CF808185FFF2CF2A
:1012A000A889B9898C9185FFEDCFCE010E94D20823
:1012B000E7CFDF91CF9108950E94C80881110C9467
:1012C000D7000895833081F028F4813099F082307E
:1012D000A1F008958730A9F08830B9F08430D1F4B6
:1012E000809180008F7D03C0809180008F778093F4
:1012F0008000089584B58F7702C084B58F7D84BD4A
:1013000008958091B0008F7703C08091B0008F7DE9
:101310008093B00008953FB7F8948091390390917D
:101320003A03A0913B03B0913C0326B5A89B05C0AE
:101330002F3F19F00196A11DB11D3FBFBA2FA92F54
:10134000982F8827820F911DA11DB11DBC01CD01D1
:1013500042E0660F771F881F991F4A95D1F70895BD
:10136000089580E090E008950E946E2D611571054A
:1013700079F0FB0101900020E9F73197AF01461B9E
:10138000570BDC01ED91FC910280F381E02D099473
:1013900080E090E00895CF92DF92EF92FF920F935A
:1013A0001F93CF93DF93EB017B0124E0E20EF11C4E
:1013B0008B016C01C61AD70AC601800F911F0E94CB
:1013C000042AF80181938F01EE15FF05A9F7CE01DC
:1013D000DF91CF911F910F91FF90EF90DF90CF9011
:1013E0000895CF93DF93EB010E94042A8883CE01F6
:1013F000DF91CF910895DC01ED91FC910190F08196
:10140000E02D09946115710579F0FB010190002030
:10141000E9F73197AF01461B570BDC01ED91FC91C9
:101420000280F381E02D099480E090E008954F92CE
:101430005F926F927F92EF92FF920F931F93CF93E1
:10144000DF93CDB7DEB7A1970FB6F894DEBF0FBE1E
:10145000CDBF7C01FA01CB0119A2223008F42AE0A9
:101460008E010F5D1F4F422E512C612C712CBF013C
:10147000A30192010E94392AF901CA010150110900
:101480006A3014F4605D01C0695CD8016C93232B51
:10149000242B252B61F7B801C7010E94020AA196EF
:1014A0000FB6F894DEBF0FBECDBFDF91CF911F9175
:1014B0000F91FF90EF907F906F905F904F90089505
:1014C0004F925F926F927F928F929F92AF92BF9254
:1014D000CF92DF92EF92FF92CF93DF93EC016A01FC
:1014E0007B01B22E9A01AB01C701B6010E94372CD5
:1014F000882319F067E273E027C026013701E894DA
:1015000077F82FEF3FEF4FE75FE7C301B2010E948B
:10151000372C81110DC02FEF3FEF4FE75FE7C3017D
:10152000B2010E94E02818161CF46BE273E00CC0B4
:101530002FEF3FEF4FE75FE4C701B6010E947F2B1B
:1015400018169CF46FE273E0CE01DF91CF91FF900B
:10155000EF90DF90CF90BF90AF909F908F907F9053
:101560006F905F904F900C94020A2FEF3FEF4FE780
:101570005FECC701B6010E94E02887FDE3CF20E0C1
:1015800030E0A901C701B6010E94E02887FF0AC028
:101590006DE2CE010E94FB094C01F7FAF094F7F8D6
:1015A000F09402C0812C912CA12C60E070E080E0CE
:1015B0009FE3AB1441F020E030E040E251E40E94B0
:1015C000D72AA394F6CF9B01AC01C701B6010E94B4
:1015D0006B2A2B013C010E94502B6B017C010E9465
:1015E000E5289B01AC01C301B2010E946A2A2B01CC
:1015F0003C012AE0B701A601CE010E94170A7C0136
:10160000E80CF91CBB2031F06EE2CE010E94FB0910
:10161000E80EF91EDB2CDD2029F120E030E040E26D
:1016200051E4C301B2010E9446292B013C010E94F2
:10163000502B4B01A12CB12C2AE0B501A401CE0105
:101640000E94170AE80EF91EC501B4010E94E528A0
:101650009B01AC01C301B2010E946A2A2B013C012B
:10166000DA94D9CFC701DF91CF91FF90EF90DF904F
:10167000CF90BF90AF909F908F907F906F905F9032
:101680004F9008951F920F920FB60F9211242F932F
:101690003F934F935F936F937F938F939F93AF93FA
:1016A000BF93EF93FF9380E493E00E94D208FF91F1
:1016B000EF91BF91AF919F918F917F916F915F91CA
:1016C0004F913F912F910F900FBE0F901F90189543
:1016D0001F920F920FB60F9211242F938F939F9307
:1016E000EF93FF93E0915003F09151038081E091DB
:1016F0005603F091570382FD12C0908180915903E7
:101700008F5F8F7320915A03821751F0E091590334
:10171000F0E0E05CFC4F958F8093590301C080811D
:10172000FF91EF919F918F912F910F900FBE0F908E
:101730001F901895CF93DF93282F30E0F901EE5BCF
:10174000FE4F8491F901E25DFE4FD491F901E65E0E
:10175000FE4FC491CC2391F081110E946209EC2FBD
:10176000F0E0EE0FFF1FE05FFE4FA591B491EC910A
:10177000ED2381E090E021F480E002C080E090E081
:10178000DF91CF910895862F0C949A0B1F93CF93DE
:10179000DF93282F30E0F901EE5BFE4F8491F901D1
:1017A000E25DFE4FD491F901E65EFE4FC491CC2379
:1017B000C9F0162F81110E946209EC2FF0E0EE0FA4
:1017C000FF1FEA5FFE4FA591B4918FB7F8941111F6
:1017D00005C09C91ED2FE095E92302C0EC91ED2B23
:1017E000EC938FBFDF91CF911F910895862F642FC7
:1017F0000C94C60BCF93DF9390E0FC01E25DFE4FAB
:101800002491FC01E65EFE4F8491882361F190E013
:10181000880F991FFC01E450FF4FC591D491FC0142
:10182000EA5FFE4FA591B491611109C09FB7F8948A
:101830008881209582238883EC912E230BC062300F
:1018400061F49FB7F8943881822F80958323888331
:10185000EC912E2B2C939FBF06C08FB7F894E88194
:101860002E2B28838FBFDF91CF910895862F642F71
:101870000C94FA0B1F93CF93DF93182FEB0161E0C9
:101880000E94FA0B209711F460E004C0CF3FD1050D
:1018900039F461E0812FDF91CF911F910C94C60B39
:1018A000E12FF0E0EE5BFE4FE491E330F9F048F415
:1018B000E130B9F0E230A1F584B5806284BDC8BDE5
:1018C00034C0E730E9F0E83019F1E43049F58091AF
:1018D0008000806280938000D0938B00C0938A0048
:1018E00024C084B5806884BDC7BD1FC080918000BE
:1018F000806880938000D0938900C093880015C0D1
:101900008091B00080688093B000C093B3000DC098
:101910008091B00080628093B000C093B40005C095
:10192000C038D1050CF0B5CFAFCFDF91CF911F916B
:1019300008958F929F92AF92BF92CF92DF92EF92D3
:10194000FF926B017C010E948B094B015C01C11469
:10195000D104E104F104F1F00E948B09DC01CB0118
:1019600088199909AA09BB09883E9340A105B105C8
:1019700070F321E0C21AD108E108F10888EE880E60
:1019800083E0981EA11CB11CC114D104E104F10430
:1019900019F7DDCFFF90EF90DF90CF90BF90AF9021
:1019A0009F908F9008952FB7F894609135037091B0
:1019B000360380913703909138032FBF08951F920B
:1019C0000F920FB60F9211242F933F938F939F93F3
:1019D000AF93BF938091350390913603A091370365
:1019E000B09138033091340323E0230F2D3720F4D6
:1019F0000196A11DB11D05C026E8230F0296A11D69
:101A0000B11D209334038093350390933603A09344
:101A10003703B09338038091390390913A03A09132
:101A20003B03B0913C030196A11DB11D8093390386
:101A300090933A03A0933B03B0933C03BF91AF91C3
:101A40009F918F913F912F910F900FBE0F901F90FC
:101A50001895AF92BF92CF92DF92EF92FF920F93C1
:101A60001F93CF93DF931F92CDB7DEB75C017B014D
:101A70008B016C0184E0C80ED11CF80161918F01CB
:101A8000C50169830E94042A6981681719F0C5019C
:101A90000E940C2AFFEFAF1ABF0AAC14BD0469F70D
:101AA000C7010F90DF91CF911F910F91FF90EF90A1
:101AB000DF90CF90BF90AF900895EF92FF920F9379
:101AC0001F93CF93DF931F92CDB7DEB78C017B01BD
:101AD000FB01608169830E94042A6981681719F0FB
:101AE000C8010E940C2AC7010F90DF91CF911F916E
:101AF0000F91FF90EF900895262FFB018FEF31E3B8
:101B00009E2F921B941760F49191892798E087FF8C
:101B100003C0880F832701C0880F9150C1F7F0CF11
:101B200008950F931F93CF93DF93CDB7DEB76097E0
:101B30000FB6F894DEBF0FBECDBF49875A876B87BB
:101B40007C870D871E872F87388B49832A852A83B8
:101B50002B852B832C852C830D832E852E832F851F
:101B60002F832889288748E0BE016F5F7F4F0E943E
:101B70007C0D60960FB6F894DEBF0FBECDBFDF912F
:101B8000CF911F910F9108958F929F92AF92BF9224
:101B9000CF92DF92EF92FF920F931F93CF93DF9339
:101BA0001F92CDB7DEB77C01962E5A016901FC0168
:101BB000662381F08181BE016F5F7F4F90E00E94BC
:101BC000F109F7018281B50190E00E94CB09F7018C
:101BD00083810FC08481BE016F5F7F4F90E00E94C0
:101BE000F109F7018581B50190E00E94CB09F70169
:101BF0008681B60190E00E94CB098980F6010081C0
:101C0000118122813381F50140815181628173818B
:101C1000C7010E94910D881639F1F701992079F0DA
:101C200087819085A185B285F50180839183A28308
:101C3000B383F70187819085A185B2850EC0838526
:101C40009485A585B685F50180839183A283B383AE
:101C5000F70183859485A585B685F60180839183F8
:101C6000A283B38380E001C081E00F90DF91CF9128
:101C70001F910F91FF90EF90DF90CF90BF90AF90AA
:101C80009F908F9008952F923F924F925F926F9204
:101C90007F928F929F92AF92BF92CF92DF92EF92FC
:101CA000FF920F931F93CF93DF93CDB7DEB7689763
:101CB0000FB6F894DEBF0FBECDBF8C019E01275F2B
:101CC0003F4FAE01435F5F4F61E00E94C40D382E6D
:101CD0009E012F5F3F4FAE014B5F5F4F60E0C80139
:101CE0000E94C40D282ECD80DE80EF80F8848D8583
:101CF0009E85AF85B889898B9A8BAB8BBC8B4980CD
:101D00005A806B807C8089849A84AB84BC849C01DB
:101D1000AD01C701B6010E946A2A6D8B7E8B8F8B45
:101D2000988FA5019401C301B2010E946A2A9B0108
:101D3000AC016D897E898F89988D0E94D72AD80140
:101D40009C966D937D938D939C939F97332091F0F8
:101D5000A50194010E9446299B01AC0169897A89F9
:101D60008B899C890E946A2AF80160AB71AB82ABB7
:101D700093AB19C0222091F0A30192010E94462941
:101D80009B01AC01C701B6010E946A2AD801D09616
:101D90006D937D938D939C93D39705C0F80110AA02
:101DA00011AA12AA13AA68960FB6F894DEBF0FBE46
:101DB000CDBFDF91CF911F910F91FF90EF90DF90FA
:101DC000CF90BF90AF909F908F907F906F905F90DB
:101DD0004F903F902F900895FC018481958100974A
:101DE00039F00E94C30121E0892BD9F020E019C00D
:101DF00086819781009741F0DC01ED91FC91019083
:101E0000F081E02D09950AC080859185892B41F0EC
:101E10006EBD00000DB407FEFDCF8EB521E001C000
:101E20000895822F0895FC0184819581009751F0D7
:101E300020E041E066850E94290221E0892BD1F053
:101E400020E018C080859185892B99F084858823AE
:101E500021F0928583859CBD8DBD60E085850E94C3
:101E6000C60B6AE070E080E090E00E94990C21E0EF
:101E700001C00895822F0895CF93DF93EC01109253
:101E8000BC006DA10E9446088EA1811102C088E4A9
:101E900001C08CE08093B800DF91CF910895CF927C
:101EA000DF92EF92FF92CF93DF93EC010E94D30C6D
:101EB0006B017C0184E98093BC008091BC0084FFAD
:101EC0001BC08FA198A5892BC1F30E94D30CAB0135
:101ED000BC014C195D096E097F098FA198A5A0E08E
:101EE000B0E0481759076A077B0738F3CE010E9414
:101EF0003C0F83E090E002C081E090E0DF91CF9161
:101F0000FF90EF90DF90CF900895CF92DF92EF9205
:101F1000FF921F93CF93DF93EC01162F0E94D30CF7
:101F20006B017C01112311F084EC01C084E88093E3
:101F3000BC008091BC0087FD1BC08FA198A5892B98
:101F4000C1F30E94D30CAB01BC014C195D096E09B1
:101F50007F098FA198A5A0E0B0E0481759076A074C
:101F60007B0738F3CE010E943C0F83E090E01DC058
:101F70008091B900887F803581F08091B900887F99
:101F8000883571F08091B900887F883361F4CE0183
:101F90000E943C0F85E090E008C082E090E005C020
:101FA00084E090E002C083E690E0DF91CF911F9142
:101FB000FF90EF90DF90CF900895CF93DF93EC01E7
:101FC00061E00E94850F998388838230910589F0B2
:101FD0008430910541F08530910541F0039761F01F
:101FE00083E690E00BC08AE090E008C089E090E0D2
:101FF00005C080E090E002C086E090E0DF91CF91E4
:102000000895CF93DF93EC010E944F0F998388834B
:102010008130910529F0039731F083E690E005C007
:1020200080E090E002C08CE090E0DF91CF910895D5
:10203000FC0184819581009739F00E94011021E014
:10204000892B99F020E011C080859185892B61F062
:1020500061E085850E94C60B6AE070E080E090E058
:102060000E94990C21E001C00895822F0895AF923B
:10207000BF92CF92DF92EF92FF920F931F93CF9375
:10208000DF9300D0CDB7DEB77C016A0169837A8324
:102090000E94130F69817A81811103C080E090E072
:1020A0001EC08B01A12CB12CAC14BD0461F0F80151
:1020B00061918F01C7010E94EC0E882379F3FFEF35
:1020C000AF1ABF0AF1CFC7010E941810882331F35D
:1020D0006AE070E080E090E00E94990CC5010F90EA
:1020E0000F90DF91CF911F910F91FF90EF90DF90B4
:1020F000CF90BF90AF9008950F931F93CF93DF932E
:102100001F92CDB7DEB78C0169830E94130F6981DE
:10211000882399F0C8010E94EC0E882371F0C80151
:102120000E941810882349F06AE070E080E090E097
:102130000E94990C81E090E002C080E090E00F9056
:10214000DF91CF911F910F910895242FAB01BC0116
:1021500085E994E00E94600A21E0892B09F420E0DF
:10216000822F0895CF93DF93CDB7DEB728970FB6B0
:10217000F894DEBF0FBECDBF98E0EEE1F1E0DE01E6
:10218000119601900D929A95E1F7643008F063E0A2
:10219000FE013196E60FF11DE60FF11D9081890FCA
:1021A000806828960FB6F894DEBF0FBECDBFDF91D2
:1021B000CF910C94E7151F93CF93DF93FA01208101
:1021C000211102C081E01BC0EA01FB01DC018C91FE
:1021D0008F5F6081821B0E94B210811102C080E07B
:1021E0000EC010E08881181768F76091F40485E943
:1021F00094E00E94FB09892B91F31F5FF3CFDF91DD
:10220000CF911F9108951F93CF93DF9300D01F921A
:10221000CDB7DEB78B83162F83E0898383E18A8372
:10222000AE014D5F5F4FBE016F5F7F4FCE010296E3
:102230000E94DB10882341F0111101C011E063E01E
:1022400084E1811B0E94B2100F900F900F90DF91DC
:10225000CF911F9108950F931F93CF938B01C0E0EF
:102260008091F204C81740F486E094E0F8010995E3
:10227000811103C0CF5FF4CF80E0CF911F910F9108
:102280000895CF9385E994E00E94130F8823E1F02D
:102290006CE785E994E00E94EC0E8823A9F06DE2DA
:1022A00085E994E00E94EC0E882371F085E994E0C2
:1022B0000E941810C82F882339F06AE070E080E08F
:1022C00090E00E94990C01C0C0E08C2FCF9108953E
:1022D000E4EAF4E080818E7F808388600C94E715C7
:1022E000CF930E9468110E944111C82F882331F0BA
:1022F0006AE070E080E090E00E94990C8C2FCF9112
:102300000895E4EAF4E08081982F916090838960D9
:102310000C94E71563E083E10E94B21081110C94E4
:10232000811180E00895BC0185E994E00C94020AD3
:102330001F93CF93DF93182FD62FC42F809188043B
:10234000909189049C012B5F3F4F412F6091400485
:102350000E946E15892BD1F4809188049091890494
:102360000E94DE068D23282F2C2B412F60914004E4
:1023700080918804909189040E94040331E020E058
:10238000892B09F430E0832F922F02C081E090E086
:10239000DF91CF911F910895FB012081222351F1FC
:1023A00060916505FC012081621720F5209164058C
:1023B000211120C0209166052223E1F06F5F609318
:1023C000650521E02093640580810E9403116091DE
:1023D00068057091690580916A0590916B0540E0F0
:1023E0000E94A5106091F30485E994E00E94FB0926
:1023F0000C948A110895CF93C82F62E080E00E9468
:10240000B21080917C05882341F0CC2319F08FE134
:1024100095E005C084E295E002C089E295E00E9463
:10242000931163E080E00E94B21080919D058823A3
:1024300041F0CC2319F08FE195E005C084E295E0EE
:1024400002C089E295E0CF910C949311FF920F9313
:102450001F93CF93DF9300D01F92CDB7DEB78C01CF
:10246000F42E2B83FC0101900020E9F73197E81B43
:10247000F90B6E1B6983FC0101900020E9F731978D
:10248000E81BF90B842F8E1B8A83AE014F5F5F4FD1
:10249000BE016D5F7F4FCE0102960E94DB10F801F6
:1024A00001900020E9F73197E01BF10B81E08F0DDF
:1024B0006B818E1B0E94B210C8010E9493110F9075
:1024C0000F900F90DF91CF911F910F91FF90089582
:1024D000EF92FF920F931F93CF93DF9300D0CDB76E
:1024E000DEB704E315E0F80101900020E9F79F0151
:1024F0002553354080911C05821B8983F80101908A
:102500000020E9F79F012553354088E3E82E85E058
:10251000F82EF7018081821B8A83AE014F5F5F4FE7
:102520006AE375E0CE0102960E94DB10F80101908B
:102530000020E9F78F0105531540F70180818F5F77
:1025400060913A05801B0E94B21084E395E00E94DE
:1025500093110F900F90DF91CF911F910F91FF90EA
:10256000EF9008958F929F92AF92BF92CF92DF9299
:10257000EF92FF920F931F93CF93DF9300D000D081
:102580001F92CDB7DEB7898380916505E82FF0E013
:10259000DB012C9130E0E217F3070CF0B2C0FA0136
:1025A0008B0190916405992309F45FC04091670500
:1025B000642F70E0208130E0621773070CF0A1C037
:1025C000DD24D394D80ED0926505CC24C394C40ED8
:1025D000C09267058090680590906905A0906A0593
:1025E000B0906B05CE0101960E948E287C016C2D67
:1025F00070E080E090E00E94E5289B01AC0160E083
:1026000070E080E291E40E94DC2B9B01AC01B701F9
:10261000FF0C880B990B2A833B834C835D830E94BC
:10262000E7282A813B814C815D810E94D72A9B014A
:10263000AC01C501B4010E946B2A609368057093D8
:10264000690580936A0590936B056D2DF801808173
:102650000E940311609168057091690580916A0577
:1026600090916B054091670548C0FF24F394F80EE4
:10267000F0926505809166058F5F8093660520E086
:1026800030E040E251E46091680570916905809105
:102690006A0590916B050E9446294B015C0160938D
:1026A00068057093690580936A0590936B05CE0168
:1026B00001960E948E28BC01990F880B990B0E94ED
:1026C000E7289B01AC01C501B4010E946B2A60930D
:1026D00068057093690580936A0590936B056F2D6B
:1026E000D8018C910E940311609168057091690571
:1026F00080916A0590916B0540E00E94A5100E94B0
:102700008A110F900F900F900F900F90DF91CF9143
:102710001F910F91FF90EF90DF90CF90BF90AF90FF
:102720009F908F900895CF92DF92EF92FF920F9338
:102730001F93CF93C0916505CC2309F4B9C08C01D8
:1027400080916405C150882309F476C060916705C3
:10275000662309F467C0615060936705C0936505FF
:102760006623B9F170E080E090E00E94E5289B01CB
:10277000AC0160E070E080E291E40E94DC2B6B0130
:102780007C01209168053091690540916A0550915E
:102790006B050E9446290E942C2CA70196010E94DD
:1027A000D72A609368057093690580936A059093B2
:1027B0006B056C2FF80180810E9403116091680500
:1027C0007091690580916A0590916B05409167054C
:1027D00064C0609168057091690580916A05909167
:1027E0006B050E942C2C609368057093690580939B
:1027F0006A0590936B056C2FF80180810E9403118C
:10280000609168057091690580916A0590916B05EA
:1028100040E00E94A5106091F30485E994E00E94D5
:10282000FB093DC0C0936505109264056C2FF8014B
:1028300080810E94031128C0809166058150809399
:102840006605C093650520E030E040E251E4609108
:1028500068057091690580916A0590916B050E94E9
:10286000D72A0E942C2C6093680570936905809389
:102870006A0590936B056C2FF80180810E9403110B
:1028800080916505882359F060916805709169050C
:1028900080916A0590916B0540E00E94A510CF9150
:1028A0001F910F91FF90EF90DF90CF900C948A11C1
:1028B000CF911F910F91FF90EF90DF90CF900895EF
:1028C000109268051092690510926A0510926B05C6
:1028D00010926505109266051092670510926405C6
:1028E000089560E00C940C2ACF92DF92EF92FF9251
:1028F0006B017C0120E030E0A9010E94E02818165D
:102900004CF4C701B6010E94842B0E94502B81E039
:10291000860F01C081E0FF90EF90DF90CF90089587
:10292000CF92DF92EF92FF920F931F93CF93DF939B
:102930008C01EB016A017901FC0160817181828166
:1029400093810E9474142881F6019081222311F052
:10295000921B01C09F5FF7016081981B892F0E9425
:10296000B210F8014081518162817381288185E92B
:1029700094E0DF91CF911F910F91FF90EF90DF9046
:10298000CF900C94600A4F925F926F927F928F92D9
:102990009F92AF92BF92EF92FF920F931F93CF93AC
:1029A000DF93CDB7DEB728970FB6F894DEBF0FBE22
:1029B000CDBF4B015C01142F4E83F22E0F83E886AE
:1029C000642F70E080E090E00E94E5289B01AC015C
:1029D00060E070E080E291E40E94DC2B2B013C017E
:1029E0009B01AC01C501B4010E9446294B015C0169
:1029F00020E030E0A9010E947F2B20E030E040E0A1
:102A00005FE387FD05C0C501B4010E946B2A04C0C5
:102A1000C501B4010E946A2A0E94492B0E94E7283E
:102A2000A30192010E94D72A4B015C010E947414F9
:102A3000112311F01F5F810FF81AF9829F81981BF3
:102A40009D83AE014F5F5F4FBE01685F7F4FCE0138
:102A500005960E94DB1089829A82AB82BC829E011D
:102A6000285F3F4FAE01495F5F4FBE016A5F7F4FF6
:102A7000CE0101960E94901428960FB6F894DEBFFE
:102A80000FBECDBFDF91CF911F910F91FF90EF90BF
:102A9000BF90AF909F908F907F906F905F904F907E
:102AA0000895CF93DF93C6E1D5E0688170E080E0C0
:102AB00090E00E94E5280E94741462E094E0981B64
:102AC000892F0E94B210488150E060E070E02AE057
:102AD00085E994E0DF91CF910C94170ACF92DF92B1
:102AE000EF92FF920F931F93CF93DF938C01F62EFB
:102AF000E42E690110923F0310923E03FC01148200
:102B000020E041E00E942902EC01F80193838283D6
:102B1000892B09F052C06E2DC8010E94C301EC013F
:102B2000F80193838283892B09F047C021E040E0BC
:102B30006F2DC8010E942902EC01F8019383828362
:102B4000892BD9F58481811133C060E0C8010E94CE
:102B5000850FF801918380838430910599F083304B
:102B6000910571F08530910529F0029731F4CBE0A1
:102B7000D0E008C0C9E0D0E005C0C3E6D0E002C0A4
:102B8000C6E0D0E0F801D383C2832097B1F48091EE
:102B9000BB00F601808381E080933F0380933D0377
:102BA000C8010E940110EC01F8019383828305C0E3
:102BB000C8010E94DD0FEC01E5CFCE01DF91CF917E
:102BC0001F910F91FF90EF90DF90CF900895CF93DA
:102BD000C82F85E994E00E94130F8823E1F06EEF7F
:102BE00085E994E00E94EC0E8823A9F06C2F85E91A
:102BF00094E00E94EC0E882371F085E994E00E9435
:102C00001810C82F882339F062E370E080E090E06C
:102C10000E94990C01C0C0E08C2FCF91089596E0DE
:102C2000899FD0011124AB54BA4F90967C936E9338
:102C30005F9791E091969C93919790912106E091F6
:102C40002206F0912306992339F0309751F0811133
:102C500008C08091D10504C0309719F05C968C9122
:102C600009940895CF92DF92EF92FF92CF936B0178
:102C70007C01C42F0E947414CC2319F091E09C0FA6
:102C8000890F869562E099E0981B892F0E94B21007
:102C90002C2FB701A60185E994E0CF91FF90EF902A
:102CA000DF90CF900C94600A0F931F93CF93DF9324
:102CB000C82FD62F86E0C89FF0011124EB54FA4F9D
:102CC00011A2878D90A181309105F1F01CF4892B20
:102CD00049F043C082309105A9F10397F1F560E016
:102CE00070E034C06623C9F161E070E08C2F0E946F
:102CF0000F160E94D30C60930D0670930E068093FE
:102D00000F069093100629C00E94D30C00910D0667
:102D100010910E0620910F0630911006AB01BC01F8
:102D2000401B510B620B730B80911F069091200684
:102D3000A0E0B0E084179507A607B70718F462E093
:102D400070E004C0D11109C063E070E08C2FDF9106
:102D5000CF911F910F910C940F16DF91CF911F917E
:102D60000F910895CF93C82F6EE580E493E00E9401
:102D7000FB0962E780E493E00E94FB096CE780E4D2
:102D800093E00E94FB096C2F80E493E00E94FB0912
:102D90006CE780E493E00E94FB0969E780E493E03C
:102DA0000E94FB0960E480E493E00E94FB096AE072
:102DB00080E493E0CF910C94FB09CF93DF93CDB7E0
:102DC000DEB7AA970FB6F894DEBF0FBECDBF7894DA
:102DD00084B5826084BD84B5816084BD85B5826020
:102DE00085BD85B5816085BD80916E0081608093D1
:102DF0006E0010928100809181008260809381003A
:102E00008091810081608093810080918000816049
:102E1000809380008091B10084608093B1008091A4
:102E2000B00081608093B00080917A0084608093CC
:102E30007A0080917A00826080937A0080917A0093
:102E4000816080937A0080917A00806880937A0014
:102E50001092C100109280001092810010928500A3
:102E60001092840082EA8093800081E18093810047
:102E700080E491E0909387008093860064E670E0A0
:102E800080E090E00E94990C80E991E09093200608
:102E900080931F068BE194E0909323068093220693
:102EA000E0915003F091510382E08083E0914C0364
:102EB000F0914D031082E0914E03F0914F038FEC9F
:102EC000808310925803E0915403F091550386E0FB
:102ED0008083E0915203F09153038081806180836D
:102EE000E0915203F0915303808188608083E091E8
:102EF0005203F0915303808180688083E0915203F4
:102F0000F091530380818F7D808381E080932A0636
:102F100084E690E0909305048093040460E08DEDD6
:102F200093E00E9446081092030488E48093B8005E
:102F3000809108049091090490939A0480939904D5
:102F400010929C0410929B0410929E0410929D0477
:102F500085E994E00E94130F8823A9F16EEF85E9BB
:102F600094E00E94EC0E882371F16091A4046860E3
:102F700085E994E00E94EC0E882329F16EEF85E943
:102F800094E00E94EC0E8823F1F06091A504646047
:102F900085E994E00E94EC0E8823A9F06CE785E9AE
:102FA00094E00E94EC0E882371F06DE285E994E0D4
:102FB0000E94EC0E882339F085E994E00E941810F5
:102FC00081110C9461231091F9040091FA0420916D
:102FD000FB0430E0ADE1B0E00E945B2A812C912C33
:102FE00054018A94A50194010E941A2A80E8F82EBF
:102FF000F20E202F30E0ADE1B0E00E945B2AA50187
:1030000094010E941A2A0EE9020F212F30E0ADE14F
:10301000B0E00E945B2AA50194010E941A2A1CEBD1
:10302000120F85E994E00E94130F882309F457C01A
:103030008091A4048B7F8093A4046EEF85E994E0D3
:103040000E94EC0E882309F44AC06091A4046860D1
:1030500085E994E00E94EC0E882309F440C06CE7F7
:1030600085E994E00E94EC0E8823C9F16F2D85E973
:1030700094E00E94EC0E882391F16CE785E994E0DE
:103080000E94EC0E882359F1602F85E994E00E949C
:10309000EC0E882321F16CE785E994E00E94EC0EA8
:1030A0008823E9F0612F85E994E00E94EC0E8823E3
:1030B000B1F08091A40484608093A4046EEF85E94C
:1030C00094E00E94EC0E882351F06091A4046860A3
:1030D00085E994E00E94EC0E81110C9469238091A3
:1030E000A4048B7F8093A40488600E94E71585E97F
:1030F00094E00E94130F8823E1F06CE785E994E0E7
:103100000E94EC0E8823A9F068E185E994E00E9412
:10311000EC0E882371F060E085E994E00E94EC0EEB
:10312000882339F085E994E00E94181081110C94ED
:1031300079230E944111882331F06AE070E080E039
:1031400090E00E94990C8091A404982F9460909331
:10315000A4048C600E94E71560ED77E080E090E0C9
:103160000E94990C60E080E00E94B21060E571E07E
:1031700085E994E00E94020A61E080E00E94B210BA
:1031800065E671E085E994E00E94020A62E080E071
:103190000E94B2106AE771E085E994E00E94020A99
:1031A00063E080E00E94B21060E571E085E994E0A0
:1031B0000E94020A60ED77E080E090E00E94990CA6
:1031C00040915804642F609580914A040E949811A0
:1031D0006091A7057091A8058091A9059091AA0515
:1031E0000E94502B683E83E0780720F410915A0427
:1031F00081E012C0603D97E0790720F410915B04F4
:1032000082E00AC0603A7F4020F410915C0484E0C0
:1032100003C010915D0488E080938A0460918B0460
:1032200070E061507109072E000C880B990B0E9409
:10323000E728209141043091420440914304509189
:1032400044040E94462920E030E040E752E40E9416
:1032500046296B017C0160918A0470E080E090E077
:103260000E94E7289B01AC01C701B6010E944629D4
:103270006B017C0160918C0470E080E090E00E9422
:10328000E7289B01AC01C701B6010E94D72A0E9422
:10329000502B60938D0470938E0480938F049093D1
:1032A0009004412F6091590480914A040E94981122
:1032B00040917A046091790480914C040E949811A5
:1032C0006091A7057091A8058091A9059091AA0524
:1032D0000E94502BAB01E0918A04E150E33040F4AE
:1032E000F0E0EE0FFF1FE85EFE4FA081E18102C01B
:1032F000A0EAEFE02A2F3E2F2417350708F49B01A0
:1033000040E050E060918D0470918E0480918F04B4
:10331000909190040E94392A65E05695479537951B
:1033200027956A95D1F740914F04609140048091B0
:103330008804909189040E9404032091AB05409178
:103340004E046091400480918804909189040E9409
:103350000403412C512C7FE7672E73EC772E4092AB
:10336000E8045092E9046092EA047092EB04C12CE4
:10337000D12CEFE7EE2EE3E4FE2EC092EC04D092C7
:10338000ED04E092EE04F092EF048091F0040091DD
:10339000C4041091C504882309F454C0F801808046
:1033A0009180A280B380A7019601C501B4010E945B
:1033B0007F2B18163CF4D801CD92DD92ED92FC9251
:1033C00013970FC020E030E04FE753ECC501B40184
:1033D0000E94E02887FF05C0F80140825182628286
:1033E00073828090DC049090DD04A090DE04B090A5
:1033F000DF04C090EC04D090ED04E090EE04F09077
:10340000EF04A7019601C501B4010E947F2B181695
:1034100084F0C090E804D090E904E090EA04F090D1
:10342000EB04A7019601C501B4010E94E02887FFC3
:1034300042C0C092DC04D092DD04E092DE04F0923F
:10344000DF0439C0D8018D909D90AD90BC908092E2
:10345000DC049092DD04A092DE04B092DF04E091DF
:10346000C204F091C30480819181A281B3818093D1
:10347000D8049093D904A093DA04B093DB0420E03D
:1034800030E04FE753E4C501B4010E947F2B1816CA
:1034900084F220E030E04FE753ECC501B4010E9414
:1034A000E02887FF08C04092DC045092DD0460925F
:1034B000DE047092DF0411E01093F004109308050D
:1034C00081E090E090930605809305051093070531
:1034D0000E94D30C6093120570931305809314051A
:1034E00090931505C0908105D0908205E0908305EA
:1034F000F0908405A701960160918505709186057D
:1035000080918705909188050E946A2A20E030E02A
:1035100040E05FE30E9446299B01AC01C701B60170
:103520000E946B2A60938F0570939005809391059C
:10353000909392058091A3059091A405A091A50573
:10354000B091A6058093B0059093B105A093B20504
:10355000B093B3050E94D30C209178053091790582
:10356000DC01CB01821B930BA109B1098093720589
:1035700090937305A0937405B093750560ED76E0A4
:1035800080E090E00E942B11882319F010938005B1
:1035900002C01092800581E080937F0560917605DE
:1035A00070917705665F7F4F80E090E00E94990CF4
:1035B00010928B0510928C0510928D0510928E053D
:1035C0001092AC051092AD051092AE051092AF05A9
:1035D000109298051092990510929A0510929B05E9
:1035E00061E08DE00E94FA0B81E0809321060E9449
:1035F000D30C009111061091120620911306309100
:103600001406AB01BC01401B510B620B730B809184
:103610001D0690911E06A0E0B0E084179507A6074E
:10362000B70718F0109221060DC110E080911B061B
:10363000181760F4E0911706F0911806E10FF11DDC
:1036400062E080810E94FA0B1F5FF0CF912C809185
:103650001C06981608F064C0E92CF12CE0911906BC
:10366000F0911A06EE0DFF1D61E080810E94FA0BB9
:10367000E0911906F0911A06EE0DFF1D60E08081C1
:103680000E94C60B81E090E0A0E0B0E0092C04C0ED
:10369000880F991FAA1FBB1F0A94D2F75C016C0107
:1036A000C094D094812C80911B06881610F5082DAB
:1036B00010E08091170690911806FC01E00FF11FB1
:1036C00080810E949A0B0C5F1F4F000F111FF801A1
:1036D000EB54FA4F892B29F4808191818A299B2907
:1036E00004C0808191818C219D219183808383946A
:1036F000DACFE0911906F0911A06EE0DFF1D61E098
:1037000080810E94C60B8091190690911A06FC01D7
:10371000EE0DFF1D60E080810E94FA0B939497CF1D
:10372000E1EDF5E083819481892B31F410828FEFF4
:103730009FEF928381831582369696E0ED30F907EC
:1037400089F7F12C46E0D42E80911B06F81608F07C
:1037500053C0E12C0F2D10E0000F111F03541A4F1E
:1037600020911C06E21608F045C0D8016D917C91AD
:103770000E2C02C0769567950A94E2F76170772760
:10378000F29E900111242E0D311DE0911506F0914D
:103790001606E20FF31FA081E5EBF5E080E0458D12
:1037A000568D4217530711F461701AC08F5F369619
:1037B0008A30A9F7672BE1F0E1EDF5E080E090E0D9
:1037C0004081411110C0D89EF001D99EF00D112406
:1037D000EB54FA4FA48F368F258F10A2178E61E01D
:1037E0000E94541605C0019636968A30910541F71D
:1037F000E394B6CFF394A8CF80E090E010E0FC0112
:10380000EB54FA4F21A1211111E006968C3391055A
:10381000B1F70E94D30C6093110670931206809347
:10382000130690931406112309F4FCCE8091D6055B
:10383000882309F4F7CE8091D4059091D50501979E
:1038400009F0F0CE0E94D30C00917205109173051F
:103850002091740530917505AB01BC01401B510BE3
:10386000620B730B80917805909179052091760514
:1038700030917705821B930BA0E0B0E04817590701
:103880006A077B0708F460C080917F05882309F4EC
:1038900038C70E94D30C00917205109173052091D6
:1038A000740530917505AB01BC01401B510B620BD7
:1038B000730B8091780590917905A0E0B0E04817EE
:1038C00059076A077B0708F41CC70E94D30C609352
:1038D00072057093730580937405909375058091BC
:1038E0008005882309F4F5C7E1E5F7E0F8A7EFA321
:1038F0001AA619A66FA178A589A59AA50E942B11D1
:10390000882309F4E6C781E080937A0580937D05DA
:1039100080937E0583EF96E09CA38BA31EA21DA23D
:103920006BA17CA18DA19EA10E942B11882309F47B
:1039300004C781E080939C0580939E0510927F05CB
:103940008091B4058111FEC680917C05882309F41D
:1039500037C280917A05882309F41BC280917E05C5
:10396000882309F42DC210927E0580917B0588235F
:10397000E9F010927B0580918B0590918C05A091C8
:103980008D05B0918E058093D8049093D904A093AF
:10399000DA04B093DB040E94D30C6093C8047093E4
:1039A000C9048093CA049093CB040AC20E94D30C2A
:1039B0006F87788B898B9A8B8091C8049091C9040A
:1039C000A091CA04B091CB048F849888A988BA8842
:1039D000881A990AAA0ABB0A8092CC049092CD0454
:1039E000A092CE04B092CF042090C2043090C304C1
:1039F000E091C604F091C704D1012D913D914D9104
:103A00005C9160817181828193810E946A2A6B013D
:103A10007C016093D4047093D5048093D604909372
:103A2000D7042091D8043091D9044091DA04509100
:103A3000DB04F10160817181828193810E946A2A95
:103A40002B013C016093D0047093D1048093D20485
:103A50009093D304C501B4010E94E5286B8B7C8B45
:103A60008D8B9E8B2091B6043091B7044091B804A1
:103A70005091B9040E944629A70196010E94462947
:103A80002091DC043091DD044091DE045091DF048C
:103A90000E946B2A4B015C016093DC047093DD048F
:103AA0008093DE049093DF041091F10411111AC089
:103AB0002091B2043091B3044091B4045091B50404
:103AC000C301B2010E9446299B01AC01C501B401AA
:103AD0000E946A2A6093DC047093DD048093DE0404
:103AE0009093DF048091DC049091DD04A091DE04CA
:103AF000B091DF048F8B988FA98FBA8F8090EC04E0
:103B00009090ED04A090EE04B090EF04A501940114
:103B1000BC01CD010E947F2B18164CF48092DC046E
:103B20009092DD04A092DE04B092DF0422C0809166
:103B3000E8049091E904A091EA04B091EB048B8F22
:103B40009C8FAD8FBE8F9C01AD016F89788D898D63
:103B50009A8D0E94E02887FF0CC08B8D9C8DAD8DC7
:103B6000BE8D8093DC049093DD04A093DE04B093BB
:103B7000DF041123A9F0A70196016091B2047091AE
:103B8000B3048091B4049091B5040E9446296093D7
:103B9000E0047093E1048093E2049093E30408C08E
:103BA0001092E0041092E1041092E2041092E304F7
:103BB0002B893C894D895E896091BA047091BB0460
:103BC0008091BC049091BD040E94D72AA301920168
:103BD0000E9446299B01AC016091DC047091DD04D8
:103BE0008091DE049091DF040E946A2A2091E00413
:103BF0003091E1044091E2045091E3040E946B2A69
:103C00006B017C016093E0047093E1048093E20413
:103C10009093E304A50194010E947F2B181684F071
:103C20008090E8049090E904A090EA04B090EB043E
:103C3000A5019401C701B6010E94E02887FF08C0D2
:103C40008092E0049092E104A092E204B092E30436
:103C50008091E0049091E104A091E204B091E3042A
:103C6000E091C404F091C50480839183A283B3835F
:103C7000F10180819181A281B3818093D8049093D6
:103C8000D904A093DA04B093DB048F859889A989BD
:103C9000BA898093C8049093C904A093CA04B093CE
:103CA000CB04C0909305D0909405E0909505F090DA
:103CB00096056091890570E080E090E00E94E72819
:103CC0004B015C019B01AC01C701B6010E947F2B37
:103CD00087FD13C061E080916E050E94C60B60E015
:103CE00080916D050E94C60BC0909305D0909405FD
:103CF000E0909505F090960528C020E030E0A901FD
:103D0000C701B6010E94E02887FF40C0C701B60185
:103D10009058A50194010E947F2B87FD37C061E078
:103D200080916D050E94C60B60E080916E050E9437
:103D3000C60BC0909305D0909405E0909505F09047
:103D40009605F7FAF094F7F8F09460918A0570E020
:103D500080E090E00E94E7289B01AC01C701B6011A
:103D60000E947F2B87FF0CC0C701B6010E94502B19
:103D70006093970570E080916C050E943A0C20C01A
:103D80008FEF809397056FEF70E0F5CF1092970556
:103D900007C080917B05811113C081E080937B0572
:103DA00060E070E080916C050E943A0C60E08091C8
:103DB0006D050E94C60B60E080916E050E94C60BE7
:103DC000E0910505F09106053197E930F10508F01D
:103DD00074C4EC5CFF4F809108050C94682D882317
:103DE00009F47FC0109208050E94701160E086E01F
:103DF0000E94B2108FE891E00E94931161E080E090
:103E00000E94B21088E991E00E94931160913905F7
:103E100086E00E94B2108DEA91E00E9493116091B9
:103E20003A0585E00E94B2108AEB91E00E9493115E
:103E300080917A05882399F060918B0570918C05AB
:103E400080918D0590918E05E0903905009138059F
:103E500020911C05409161050E94C3140AC0209165
:103E600039054091380560911C058EE295E00E946D
:103E7000261280919D05882311F180919C0588234D
:103E800099F06091AC057091AD058091AE0590916F
:103E9000AF05E0903A050091380520911C0540914E
:103EA00063050E94C3140DC020913A054091380566
:103EB00060911C058EE295E00E94261202C00E94CD
:103EC000681281E0809317050E94FB110E94D30CB9
:103ED000609318057093190580931A0590931B053C
:103EE000ECC380917A058823C9F080917D058823F1
:103EF000F9F060918B0570918C0580918D05909102
:103F00008E05E09039050091380520911C054091FF
:103F100061050E94C31410927D050AC020913905E5
:103F20004091380560911C058EE295E00E942612B2
:103F300080919D05882341F180919C058823C9F0DB
:103F400080919E05882311F16091AC057091AD05BB
:103F50008091AE059091AF05E0903A05009138054B
:103F600020911C05409163050E94C31410929E0588
:103F70000DC020913A054091380560911C058EE2F4
:103F800095E00E94261202C00E9468120E94D30C83
:103F9000009118051091190520911A0530911B0503
:103FA000AB01BC01401B510B620B730B80911D05D3
:103FB00090911E05A0E0B0E0481759076A077B07FB
:103FC00008F47BC30E94D30C609318057093190505
:103FD00080931A0590931B0580911705882319F08B
:103FE0001092170503C081E0809317058091170593
:103FF0000E94FB1162C3882309F45FC31092080575
:104000000E94701160E080E00E94B2108AEC91E0A2
:104010000E94931161E080E00E94B21088E991E073
:104020000E94931162E080E00E94B2108FED91E057
:104030000E94931163E080E00E94B2108BEE91E049
:104040000E94931182E08D8383E189839E012B5F1F
:104050003F4FAE014F5F5F4F61E675E08FE895E03F
:1040600035C0882309F429C3109208050E947011F5
:1040700060E082E00E94B21087EF91E00E9493110D
:1040800061E080E00E94B21088E991E00E94931103
:1040900062E080E00E94B2108FED91E00E949311E7
:1040A00063E080E00E94B2108BEE91E00E949311D9
:1040B00082E08D8383E189839E012B5F3F4FAE01B8
:1040C0004F5F5F4F63E675E080EB95E00E949014D0
:1040D00063E083E10E94B2100E948111EEC2882346
:1040E00009F4EBC2109208050E94701160E080E0B4
:1040F0000E94B21087E092E00E94931161E080E09C
:104100000E94B2108CE192E00E94931162E080E084
:104110000E94B21080E392E00E94931163E080E07D
:104120000E94B21084E492E0B0C2882309F49CC0DB
:10413000109208050E94701160E080E00E94B210A9
:1041400089E592E00E94931160E08CE00E94B21039
:1041500080913E05882311F061E301C062E385E9A7
:1041600094E00E94FB0961E080E00E94B2108EE6BC
:1041700092E00E94931162E083E00E94B2108EE709
:1041800092E00E94931163E082E00E94B2108AE8FC
:1041900092E00E9493119E012B5F3F4FAE01475F5B
:1041A0005F4F60913E058CE094E00E94C40D88232F
:1041B00081F111E01E8788E08D878D819E81AF811E
:1041C000B88589839A83AB83BC839E01225F3F4F6E
:1041D000AE01435F5F4F61E675E0CE0101960E943C
:1041E00090141E8783E18D8789859A85AB85BC8570
:1041F00089839A83AB83BC839E01225F3F4FAE01CC
:10420000435F5F4F61E675E0CE0101960E94901416
:1042100010C061E085E00E94B21087E992E00E9440
:10422000931161E080E10E94B21087E992E00E9460
:10423000931182E08E8783E18D8780913004909185
:104240003104A0913204B091330489839A83AB8303
:10425000BC839E01225F3F4FAE01435F5F4F61E62B
:1042600075E0CE01019632CF80917A058823D9F08E
:1042700080917D05882309F420C20E946811609115
:10428000300470913104809132049091330422E023
:10429000E22E03E120913B05409161050E94C31489
:1042A00010927D0515CF0E94681122E043E16091D4
:1042B0003B058EE295E00E9426120ACF882379F111
:1042C000109208050E94701160E081E00E94B21017
:1042D0008BE992E00E94931161E080E00E94B210AD
:1042E0008EEA92E00E94931162E081E00E94B21097
:1042F00083EC92E00E94931163E080E00E94B21090
:1043000086ED92E00E9493110E94D30C60933F05CA
:10431000709340058093410590934205CEC10E9461
:10432000D30C00913F05109140052091410530913B
:104330004205AB01BC01401B510B620B730B80911A
:104340003C0590913D05A0E0B0E0481759076A0789
:104350007B0708F4B2C181E08093080584E090E017
:10436000A8C1882339F1109208050E94701160E0FD
:1043700080E00E94B21080E591E00E94931161E01C
:1043800082E00E94B2108BEE92E00E94931162E0F4
:1043900086E00E94B2108BEF92E00E94931163E0DE
:1043A00080E00E94B21080E591E00E9493110E948B
:1043B000511583C10E94D30CA09116054A2F50E0DD
:1043C00041505109E8EEF3E04E9F90014F9F300DB0
:1043D0005E9F300D11248901330F220B330B809027
:1043E0000E0590900F05A0901005B09011050819CA
:1043F00019092A093B0968017901C60ED71EE81E72
:10440000F91E4091F7045091F80460E070E0C41682
:10441000D506E606F70608F44AC08FEF8A0F8093A8
:104420001605811142C0809109058823F9F011E039
:1044300010930B0560E0809170050E94C60B1092EE
:104440007C051092970560E070E080916C050E94F9
:104450003A0C60E080916D050E94C60B60E080918F
:104460006E050E94C60B1093080518C080910A05BE
:104470008823E9F081E080930C0510E001C01F5F04
:104480008091F204181738F460E086E094E00E940E
:1044900064038823A1F381E08093080581E090E024
:1044A000909306058093050502C00E945115E09186
:1044B0000A04F0910B04878D90A1039709F0FDC0C9
:1044C00081E08093080581E090E0F3C0882309F43F
:1044D00072C0109208050E94701160E080E00E9496
:1044E000B21080E591E00E94931161E082E00E94A9
:1044F000B2108091050590910605089719F485E0A2
:1045000093E002C086E193E00E94931162E080E0B4
:104510000E94B21085E495E00E949311EBE4F5E06F
:1045200001900020E9F79F012C54354062E084E1BE
:10453000821B0E94B2108BE495E00E94931120919F
:104540000D0580910505909106052223B1F008978D
:1045500049F4609181057091820580918305909165
:10456000840508C060918505709186058091870556
:10457000909188054091610515C0089749F46091B4
:104580009F057091A0058091A1059091A20508C09A
:104590006091A3057091A4058091A5059091A60551
:1045A000409163050E94321663E080E00E94B210E1
:1045B00080E591E06AC00E94D30CA0915B05009158
:1045C0005C0510915D0520915E0530915F056B01E2
:1045D0007C01C01AD10AE20AF30A4A2F50E04F5F69
:1045E0005F4FE0915705F09158054E9F90014F9F06
:1045F000300D5E9F300D1124A90160E070E0C416FB
:10460000D506E606F70608F458C081E08A0F8093C5
:104610005B05909159058917D8F580915A05882333
:10462000D1F010925A0562E080E00E94B21081E55C
:1046300095E00E949311E1E5F5E001900020E9F793
:104640009F012255354062E084E1821B0E94B21036
:1046500081E595E01AC081E080935A0562E080E030
:104660000E94B21085E495E00E949311EBE4F5E01E
:1046700001900020E9F79F012C54354062E084E16D
:10468000821B0E94B2108BE495E00E94931115C02A
:104690000E94601480910D05882331F081E08093A1
:1046A000080582E090E005C081E08093080583E082
:1046B00090E090930605809305050E945C090C9498
:1046C000F41A62E370E080E090E00E94990C0C9490
:1046D000E31785E994E00E941810882311F40C94E4
:1046E0006F1862E370E080E090E00E94990C0C94F7
:1046F0006F186AE070E080E090E00E94990C0C94E2
:10470000991880917F0581111FC9E0EDF6E0F8A3AB
:10471000EF8F1AA219A26F8D78A189A19AA10E9488
:104720002B11882321F081E08093800502C0109234
:10473000800581E080937F0507C910929C05109247
:104740009E05FCC88090B0059090B105A090B20580
:10475000B090B305C0909D0580918F059091900514
:10476000A0919105B09192058F87988BA98BBA8BF8
:1047700010917C054090AC055090AD056090AE0561
:104780007090AF0500919C058091980590919905D6
:10479000A0919A05B0919B058B8B9C8BAD8BBE8BAA
:1047A00080918B0590918C05A0918D05B0918E051F
:1047B0008F8B988FA98FBA8FD0907A05E0900604DE
:1047C000F09007046EE580E493E00E94FB0964E644
:1047D00080E493E00E94FB096CE780E493E00E9490
:1047E000FB09DD2061F0D70113962C914F89588D7C
:1047F000698D7A8D80E493E00E94600A05C065E6C9
:1048000080E493E00E94FB096CE780E493E00E945F
:10481000FB09DD2059F0F70124814B895C896D8902
:104820007E8980E493E00E94600A05C065E680E42A
:1048300093E00E94FB096CE780E493E00E94FB098F
:10484000002351F0D70115962C91B301A20180E409
:1048500093E00E94600A05C065E680E493E00E9450
:10486000FB096CE780E493E00E94FB09112359F0F7
:10487000F70123814F85588969897A8980E493E01B
:104880000E94600A05C069E680E493E00E94FB098B
:104890006CE780E493E00E94FB09CC2051F0D70143
:1048A00015962C91B501A40180E493E00E94600A62
:1048B00005C069E680E493E00E94FB0960E480E4BF
:1048C00093E00E94FB096AE080E493E00E94FB0908
:1048D0003BC810927A0510927D0510927E051AC889
:1048E00008952F923F924F925F926F927F928F9294
:1048F0009F92AF92BF92CF92DF92EF92FF920F936F
:104900001F93CF93DF931F92CDB7DEB7109243036F
:104910001092420388EE93E0A0E0B0E0809344035D
:1049200090934503A0934603B09347038AE291E036
:10493000909341038093400385EC90E090934D0366
:1049400080934C0384EC90E090934F0380934E034C
:1049500080EC90E0909351038093500381EC90E0C1
:10496000909353038093520382EC90E0909355030D
:104970008093540386EC90E0909357038093560302
:104980001092590310925A0310925B0310925C0329
:104990008CE780932406109225061092260681E06B
:1049A0008093270680932806109229068BEA96E0CA
:1049B0009093C0068093BF061092B7051092BB0576
:1049C0001092BA051092BC058AE491E09093B60566
:1049D0008093B50580E090E0FC01EB54FA4F148E13
:1049E00010A2178E11A206968C339105A9F784E0C8
:1049F00091E0909318068093170680E091E09093E1
:104A00001A068093190614E010931B0610931C06D7
:104A100088E091E090931606809315068AE090E076
:104A200090931E0680931D0644EF51E0509320069C
:104A300040931F0610922306109222061092110630
:104A4000109212061092130610921406109221066C
:104A500084E296E090930704809306048DED93E042
:104A6000909309048093080425EB35E030930B0400
:104A700020930A0424E4822E80920C043AE0732EE0
:104A800070920D044CE0A42EA0920E0450E1E52E8D
:104A9000E0920F0464E1562E5092100426E1209318
:104AA00011043AE13093120440E050E060E87FE303
:104AB00040931304509314046093150470931604E8
:104AC00040E050E068EC72E44093170450931804FF
:104AD0006093190470931A043CE23093250476E045
:104AE000C72EC09226043DE030932704E0922804AC
:104AF00034E23093290410922A043BE030932B04D3
:104B000020932C0490932E0480932D0480922F04E4
:104B10008CE094E00E94430E4091080450910904F7
:104B20002FE22093400480E090E0A0E0B7E480937F
:104B3000410490934204A0934304B093440488EF4B
:104B40009FEF90934604809345043DE230934704E1
:104B500030E33093480431E33093490432E3309337
:104B60004A0433E330934B0436E330934C0437E389
:104B700030934D0438E330934E0439E330934F04BF
:104B8000ECE3FE2EF09250043DE3309351046EE3CB
:104B9000609352047FE37093530410925404DD2415
:104BA000D394D092550402E000935604F3E0BF2E54
:104BB000B092570430E8309358043FE930935904D9
:104BC00010925A04A0E2A0935B04F0E4F0935C041A
:104BD00030E630935D04E7EEE0935E0410925F04EC
:104BE00068E060936004E092610438E1309362040D
:104BF000A8EFA093630410926404D092650400931C
:104C00006604B092670410936804A5E09A2E90920F
:104C10006904C0926A04B7E06B2E60926B04F09353
:104C20006C04B0E2B0936D04E0936E0410926F04D4
:104C300060937004E092710430937204E9EFE093A2
:104C40007304109274040093750410937604C09258
:104C50007704B0937804E3EEE093790410927A0439
:104C600010937B0460937C04A0927D04E0927E0408
:104C700050927F04309380043CE1309381043CEFF8
:104C80003093820410928304D092840400938504AC
:104C9000B0928604709387045093890440938804EB
:104CA00000938A0490928B0400938C0410929404D5
:104CB00010929304909392048093910480E090E08A
:104CC000A8E7B0E080938D0490938E04A0938F04A6
:104CD000B093900410929804109297048CE391E0A2
:104CE000909396048093950410929A0410929904DC
:104CF00010929C0410929B0410929E0410929D04AA
:104D000083E580939F041092A0041092A1047092F6
:104D1000A20482E78093A3041093A4040093A50443
:104D200029830E94D30CAB01BC0183E995E09093E9
:104D3000C5048093C4048BE895E09093C3048093EA
:104D4000C2048FE895E09093C7048093C604109244
:104D5000F0041092E8041092E9041092EA04109210
:104D6000EB0480E090E0AFE7B3E48093EC04909331
:104D7000ED04A093EE04B093EF041092BF041092E0
:104D8000BE041092C1041092C0041092F104212CB0
:104D9000312C80EA482E80E4582E2092A6043092CE
:104DA000A7044092A8045092A9048FE692E1A3E8D8
:104DB000BAE38093AA049093AB04A093AC04B0939D
:104DC000AD041092AE041092AF041092B004109291
:104DD000B1042092B2043092B3044092B4045092D1
:104DE000B5048093B6049093B704A093B804B0932D
:104DF000B9041092BA041092BB041092BC04109231
:104E0000BD044093C8045093C9046093CA047093CE
:104E1000CB047092F2048EE28093F304E0E2E0931C
:104E2000F404FEE3F093F5041092F60488EB9BE0A3
:104E30009093F8048093F7048FEF9FEFAFEFB0E00B
:104E40008093F9049093FA04A093FB04B093FC04BC
:104E50001092FD041092FE041092FF0410920005BF
:104E600080E197E2A0E0B0E0809301059093020515
:104E7000A0930305B093040560921C0544EF51E034
:104E800050931E0540931D05F0931F05F0932005D8
:104E9000E0932105E093220510922305E093240579
:104EA000E0932505F0932605F09327051092280539
:104EB00089E48093290580922A058CE480932B0550
:104EC00085E480932C0510922D0580932E0582E5B4
:104ED00080932F05809330059FE490933105809354
:104EE0003205109233058EE4809334052981209396
:104EF000350581E480933605109237058FE0809365
:104F0000380500933905B0923A0590923B0520EDA3
:104F100037E030933D0520933C05F0934305F09234
:104F20004405F0934505F0934605F0934705F0934B
:104F30004805F093490510924A05F0924B05F0920E
:104F40004C05F0924D05F0924E05F0924F051092EF
:104F50005005E0935105E0935205E0935305E0932B
:104F60005405E0935505109256052CEB32E0309332
:104F7000580520935705C092590510936005D092AB
:104F80006105109362051092630599E090936C059A
:104F90009EE090936D0580936E05E0926F05A09260
:104FA000700581E1809371058BE391E09093770523
:104FB0008093760588EE93E0909379058093780549
:104FC000109281051092820510928305109284053B
:104FD00060E070E088EC92E460938505709386054C
:104FE000809387059093880586E4809389058FEFE9
:104FF00080938A0580E090E0A6E9B4E480939F0561
:105000009093A005A093A105B093A20580E090E63F
:10501000AAEEB5E48093A3059093A405A093A505FB
:10502000B093A60580E090E0AAEFB3E48093A705D3
:105030009093A805A093A905B093AA058EE180934B
:10504000AB051092B40560E089E00E94C60B60E0F9
:1050500080916D050E94C60B60E080916E050E94F4
:10506000C60B61E080916F050E94C60B60E08091E5
:1050700070050E94C60B60E0809171050E94C60B0E
:1050800061E080916C050E94FA0B61E080916D05F2
:105090000E94FA0B61E080916E050E94FA0B61E0BC
:1050A00080916F050E94FA0B61E0809170050E946B
:1050B000FA0B61E0809171050E94FA0B10927A055B
:1050C00010927C0510927D0510927E0510927B0552
:1050D00010927F05109280051092090510920B0521
:1050E00010929C0510929D0510929E0510920A0543
:1050F00010920C050F90DF91CF911F910F91FF90AF
:10510000EF90DF90CF90BF90AF909F908F907F9067
:105110006F905F904F903F902F900895FC018827EB
:105120009927E89421912032E9F3293010F02E30AC
:10513000C8F32B3241F02D3239F4689404C00E9438
:10514000D828820F911D219120532A30C0F31EF4DC
:10515000909581959F4F089541E457E00E94B128B2
:105160000895FA01A191B081009719F41097E1F028
:10517000CD01DC01CD010D90002011F4C00113C060
:10518000FB012191222319F02015D9F7F3CFFB0160
:105190002191201519F41E92119606C02223C1F701
:1051A0000D900020A1F7D001FA01A193B0830895DA
:1051B0007AE0979F902D879F802D910D112408955F
:1051C0000E94222908F481E00895E89409C097FB21
:1051D0003EF490958095709561957F4F8F4F9F4FCE
:1051E0009923A9F0F92F96E9BB279395F695879512
:1051F00077956795B795F111F8CFFAF4BB0F11F4D5
:1052000060FF1BC06F5F7F4F8F4F9F4F16C088237B
:1052100011F096E911C0772321F09EE8872F762FB1
:1052200005C0662371F096E8862F70E060E02AF0F2
:105230009A95660F771F881FDAF7880F96958795DE
:1052400097F90895990F0008550FAA0BE0E8FEEFB3
:1052500016161706E807F907C0F012161306E4073A
:10526000F50798F0621B730B840B950B39F40A2633
:1052700061F0232B242B252B21F408950A2609F411
:10528000A140A6958FEF811D811D08950E94592987
:105290000C94CA290E94BC2938F00E94C32920F02E
:1052A000952311F00C94B3290C94B92911240C9472
:1052B000FE290E94DB2970F3959FC1F3950F50E002
:1052C000551F629FF001729FBB27F00DB11D639FB8
:1052D000AA27F00DB11DAA1F649F6627B00DA11D5E
:1052E000661F829F2227B00DA11D621F739FB00D04
:1052F000A11D621F839FA00D611D221F749F332774
:10530000A00D611D231F849F600D211D822F762F0C
:105310006A2F11249F5750409AF0F1F088234AF0E9
:10532000EE0FFF1FBB1F661F771F881F9150504055
:10533000A9F79E3F510580F00C94B3290C94FE29E7
:105340005F3FE4F3983ED4F3869577956795B795DC
:10535000F795E7959F5FC1F7FE2B880F911D9695F6
:10536000879597F9089597F99F6780E870E060E066
:1053700008959FEF80EC089500240A9416161706EE
:1053800018060906089500240A9412161306140636
:1053900005060895092E0394000C11F4882352F099
:1053A000BB0F40F4BF2B11F460FF04C06F5F7F4F51
:1053B0008F4F9F4F089557FD9058440F551F59F038
:1053C0005F3F71F04795880F97FB991F61F09F3FF2
:1053D00079F087950895121613061406551FF2CF1B
:1053E0004695F1DF08C0161617061806991FF1CF6B
:1053F00086957105610508940895E894BB27662792
:105400007727CB0197F90895F999FECF92BD81BD19
:10541000F89A992780B50895262FF999FECF1FBADB
:1054200092BD81BD20BD0FB6F894FA9AF99A0FBECD
:1054300001960895052E97FB1EF400940E94312AD0
:1054400057FD07D00E94392A07FC03D04EF40C9474
:10545000312A50954095309521953F4F4F4F5F4FE2
:10546000089590958095709561957F4F8F4F9F4FD0
:105470000895A1E21A2EAA1BBB1BFD010DC0AA1F95
:10548000BB1FEE1FFF1FA217B307E407F50720F0AD
:10549000A21BB30BE40BF50B661F771F881F991F28
:1054A0001A9469F760957095809590959B01AC0171
:1054B000BD01CF010895A29FB001B39FC001A39F7A
:1054C000700D811D1124911DB29F700D811D11243D
:1054D000911D08955058BB27AA270E94822A0C9438
:1054E000CA290E94BC2938F00E94C32920F039F44F
:1054F0009F3F19F426F40C94B9290EF4E095E7FBCC
:105500000C94B329E92F0E94DB2958F3BA176207DC
:1055100073078407950720F079F4A6F50C94FD290C
:105520000EF4E0950B2EBA2FA02D0B01B9019001BE
:105530000C01CA01A0011124FF27591B99F0593F02
:1055400050F4503E68F11A16F040A22F232F342F4A
:105550004427585FF3CF469537952795A795F04098
:105560005395C9F77EF41F16BA0B620B730B840BAD
:10557000BAF09150A1F0FF0FBB1F661F771F881F65
:10558000C2F70EC0BA0F621F731F841F48F48795BD
:1055900077956795B795F7959E3F08F0B0CF9395AF
:1055A000880F08F09927EE0F9795879508950E9428
:1055B000EB2A0C94CA290E94C32958F00E94BC29E6
:1055C00040F029F45F3F29F00C94B32951110C9459
:1055D000FE290C94B9290E94DB2968F39923B1F3C1
:1055E000552391F3951B550BBB27AA276217730709
:1055F000840738F09F5F5F4F220F331F441FAA1F9D
:10560000A9F335D00E2E3AF0E0E832D09150504058
:10561000E695001CCAF72BD0FE2F29D0660F771F06
:10562000881FBB1F261737074807AB07B0E809F0EC
:10563000BB0B802DBF01FF2793585F4F3AF09E3F71
:10564000510578F00C94B3290C94FE295F3FE4F3E4
:10565000983ED4F3869577956795B795F7959F5FB4
:10566000C9F7880F911D9695879597F90895E1E000
:10567000660F771F881FBB1F621773078407BA075F
:1056800020F0621B730B840BBA0BEE1F88F7E095BA
:1056900008950E94502B6894B1110C94FE2908952E
:1056A0000E94E32988F09F5798F0B92F9927B751A6
:1056B000B0F0E1F0660F771F881F991F1AF0BA95B6
:1056C000C9F714C0B13091F00E94FD29B1E00895EE
:1056D0000C94FD29672F782F8827B85F39F0B93FE0
:1056E000CCF3869577956795B395D9F73EF4909569
:1056F0008095709561957F4F8F4F9F4F08950E94C1
:10570000222908F48FEF08950E94942B29ED3BE5A0
:105710004EED5EE30C94462916F00C94912C0C94FB
:10572000B92968940C94B3290E94E329A8F399231A
:10573000C1F3AEF3DF93CF931F930F93FF92C92F63
:10574000DD2788232AF02197660F771F881FDAF755
:1057500020E030E040E85FEB9FE3883920F0803EB6
:1057600038F021968F770E946B2AEAE7F0E004C0B8
:105770000E946B2AE7EAF0E00E949F2C8B01BE0199
:10578000EC01FB2E6F5771097595771F880B990BEC
:105790000E94E72828E132E741E35FE30E945929AC
:1057A000AF2D9801AE01FF900F911F91CF91DF9126
:1057B0000E94822A0C94CA29FA01EE0FFF1F30962C
:1057C00021053105A1F16115710561F48038BFE350
:1057D0009B0749F168949038810561F08038BFEFEC
:1057E0009B0741F099234AF5FF3FE105310521056B
:1057F00019F1E8940894E795D901AA2329F4AB2F6D
:10580000BE2FF85FD0F310C0FF5F70F4A695E0F7ED
:10581000F73950F019F0FF3A38F49F779F930DD085
:105820000F9007FC9058089546F00C94B92960E059
:1058300070E080E89FE308954FE79F775F934F9371
:105840003F932F930E94942B2F913F914F915F9103
:105850000E9446290C94442C0E94C62C30F09F379D
:1058600010F40C94FE290C94762C0C94912C0E942C
:105870002229880B990B089529F416F00C94B3296A
:105880000C94FD290C94B9290E94E329A8F39638B9
:10589000A0F707F80F92E8942BE33AEA48EB5FE7AA
:1058A0000E945C290F920F920F924DB75EB70F9234
:1058B0000E94202DE4EDF0E00E949F2C4F915F911B
:1058C000EF91FF91E595EE1FFF1F49F0FE57E0684D
:1058D0004427EE0F441FFA95E1F74195550B0E94BE
:1058E000EA2C0F9007FE0C94DE2C0895882371F4A7
:1058F000772321F09850872B762F07C0662311F469
:1059000099270DC09051862B70E060E02AF09A959F
:10591000660F771F881FDAF7880F9695879597F996
:1059200008959F3F31F0915020F4879577956795C2
:10593000B795880F911D9695879597F90895DF93F0
:10594000CF931F930F93FF92EF92DF927B018C0115
:10595000689406C0DA2EEF010E945929FE01E894EE
:10596000A5912591359145915591A6F3EF010E949E
:10597000822AFE019701A801DA9469F7DF90EF907F
:10598000FF900F911F91CF91DF9108950E94E3291D
:10599000A0F0BEE7B91788F4BB279F3860F416164D
:1059A000B11D672F782F8827985FF7CF8695779559
:1059B0006795B11D93959639C8F308959B01AC0185
:1059C00060E070E080E89FE30C94D72A0C94B32940
:1059D0000C94912C0E94E329D8F39923C9F3940FD6
:1059E000511DA3F39150504094F059F0882332F0A8
:1059F000660F771F881F91505040C1F79E3F510599
:105A00002CF7880F911D9695879597F908955F3F1C
:105A1000ACF0983E9CF0BB27869577956795B79537
:105A200008F4B1609395C1F7BB0F58F711F460FF0C
:105A3000E8CF6F5F7F4F8F4F9F4FE3CF0C94FE29CE
:105A4000FA01DC01AA0FBB1F9B01AC01BF5728F470
:105A5000222733274427507820C0B75190F4AB2F2A
:105A60000024469537952795011CA395D2F3002075
:105A700071F0220F331F441FB395DAF30ED00C944C
:105A80006A2A61307105A0E88A07B94630F49B01A3
:105A9000AC016627772788279078309621F02083FD
:105AA0003183428353830895AA1BBB1B51E107C076
:105AB000AA1FBB1FA617B70710F0A61BB70B881F9E
:105AC000991F5A95A9F780959095BC01CD0108952D
:105AD000EE0FFF1F0590F491E02D099481E090E016
