:100000000C94A3000C94CB000C94CB000C94CB006C
:100010000C94CB000C94CB000C94CB000C94CB0034
:100020000C94CB000C94CB000C94CB000C94CB0024
:100030000C94CB000C94CB000C94CB000C94CB0014
:100040000C94DC150C94CB000C944C160C942616D6
:100050000C94CB000C94CB000C94CB000C94CB00F4
:100060000C94CB000C94CB0008000000BE922449F5
:10007000123EABAAAA2ABECDCCCC4C3E00000080DA
:10008000BEABAAAAAA3E00000000BF000000803F4D
:100090000000000000084178D3BB4387D1133D190D
:1000A0000E3CC3BD4282AD2B3E68EC8276BED98F3A
:1000B000E1A93E4C80EFFFBE01C4FF7F3F0000007E
:1000C000000007634236B79BD8A71A39685618AEA6
:1000D000BAAB558C1D3CB7CC5763BD6DEDFD753E7D
:1000E000F6177231BF000000803F000000002400BE
:1000F00027002A0000000000250028002B00000037
:10010000000023002600290004040404040404045D
:1001100002020202020203030303030301020408B2
:100120001020408001020408102001020408102061
:1001300000000008000201000003040700000000A6
:10014000000000007E1611241FBECFEFD8E0DEBFF6
:10015000CDBF13E0A0E0B1E0EEE6FAE502C0059005
:100160000D92A433B107D9F727E0A4E3B3E001C0AF
:100170001D92A234B207E1F710E0C3EAD0E004C058
:100180002197FE010E940E2DC23AD107C9F70E94A5
:100190008F1A0C94352D0C940000282FFC018FEF42
:1001A00031E39191892798E087FF09C0880F832761
:1001B0009150D1F79E2F921B961798F30895880FB0
:1001C000F7CFCF93DF93CDB7DEB728970FB6F8946C
:1001D000DEBF0FBECDBF69837A838B839C832D8363
:1001E0003E834F83588768E0CE0101960E94CD0080
:1001F00028960FB6F894DEBF0FBECDBFDF91CF912A
:1002000008950F931F93CF938B01C0E08091F10469
:10021000C81740F485E094E0F8010995811103C006
:10022000CF5FF4CF80E0CF911F910F91089596E0BA
:10023000899FD0011124AC54BA4F90967C936E9351
:100240005F9791E091969C939197E0912106F091B0
:10025000220690912006992339F0309751F08111B0
:1002600008C08091D0050994309719F05C968C9164
:10027000FACF0895833081F028F4813099F08230EC
:10028000A9F008958730A9F08830C9F08430B1F41E
:10029000809180008F7D03C0809180008F77809354
:1002A0008000089584B58F7784BD089584B58F7DCF
:1002B000FBCF8091B0008F778093B000089580913C
:1002C000B0008F7DF9CFCF93DF93282F30E0F90175
:1002D000E05DFE4F8491F901E45EFE4FD491F90197
:1002E000E85FFE4FC491CC23A1F081110E943A0136
:1002F000EC2FF0E0EE0FFF1FE250FF4FA591B491FD
:10030000EC91ED2381E090E009F480E0DF91CF9162
:10031000089580E090E0FACF1F93CF93DF93282FCA
:1003200030E0F901E05DFE4F8491F901E45EFE4F9B
:10033000D491F901E85FFE4FC491CC23A9F0162FA8
:1003400081110E943A01EC2FF0E0EE0FFF1FEC50FC
:10035000FF4FA591B4918FB7F894EC91111108C09B
:10036000D095DE23DC938FBFDF91CF911F9108954D
:10037000DE2BF8CFCF93DF9390E0FC01E45EFE4FDD
:100380002491885F9E4FFC0184918823C9F090E0FE
:10039000880F991FFC01E651FF4FA591B491FC0114
:1003A000EC50FF4FC591D49161110DC09FB7F894E7
:1003B0008C91209582238C938881282328839FBF4A
:1003C000DF91CF910895623051F49FB7F8943C913A
:1003D000822F809583238C93E8812E2BEFCF8FB7CC
:1003E000F894EC912E2B2C938FBFEACF1F93CF93D1
:1003F000DF93182FEB0161E00E94BA01209739F4D6
:1004000060E0812FDF91CF911F910C948C01CF3F41
:10041000D10511F461E0F5CFE12FF0E0E05DFE4F92
:10042000E491E33031F140F4E130B1F0E230E1F059
:10043000C038D1057CF7E4CFE73029F1E83059F135
:10044000E430B1F780918000806280938000D09387
:100450008B00C0938A0004C084B5806884BDC7BD8A
:10046000DF91CF911F91089584B5806284BDC8BD8E
:10047000F7CF80918000806880938000D0938900BE
:10048000C0938800EDCF8091B00080688093B00069
:10049000C093B300E5CF8091B00080628093B0003C
:1004A000C093B400DDCF3FB7F894809139039091A9
:1004B0003A03A0913B03B0913C0326B5A89B05C02D
:1004C0002F3F19F00196A11DB11D3FBFBA2FA92FD3
:1004D000982F8827BC01CD01620F711D811D911DD0
:1004E00042E0660F771F881F991F4A95D1F708953C
:1004F0008F929F92AF92BF92CF92DF92EF92FF9234
:100500006B017C010E9453024B015C01C114D104B8
:10051000E104F104B9F00E945302681979098A09CB
:100520009B09683E73408105910580F321E0C21A62
:10053000D108E108F10888EE880E83E0981EA11C1E
:10054000B11CE4CFFF90EF90DF90CF90BF90AF90C1
:100550009F908F9008952FB7F89460913503709114
:10056000360380913703909138032FBF08950F937E
:100570001F93CF93DF93C82FD62F86E0C89FF0013B
:100580001124EC54FA4F11A2878D90A1813091056E
:10059000F1F058F082309105F1F1039709F440C071
:1005A000DF91CF911F910F9108956623C9F361E008
:1005B00070E08C2F0E9417010E94AB0260930C0622
:1005C00070930D0680930E0690930F06E9CF0E945C
:1005D000AB0200910C0610910D0620910E06309191
:1005E0000F06AB01BC01401B510B620B730B8091DA
:1005F0001E0690911F06B0E0A0E084179507A6079D
:10060000B70748F462E070E08C2FDF91CF911F9123
:100610000F910C94170163E070E0D111C1CFF4CFBA
:1006200070E060E0F1CF862F642F0C94BA01862F22
:10063000642F0C948C01862F0C946301DC01ED91E6
:10064000FC910190F081E02D0994AF92BF92CF927E
:10065000DF92EF92FF920F931F93CF93DF936C0182
:100660007B018B01040F151FEB015E01AE18BF0863
:10067000C017D10759F06991D601ED91FC91019015
:10068000F081E02DC6010995892B79F7C501DF912D
:10069000CF911F910F91FF90EF90DF90CF90BF907F
:1006A000AF900895FC01538D448D252F30E0842FA9
:1006B00090E0821B930B541710F0CF96089501978A
:1006C0000895FC01918D828D981761F0A28DAE0F77
:1006D000BF2FB11D5D968C91928D9F5F9F73928FFE
:1006E00090E008958FEF9FEF0895FC01918D828D2A
:1006F000981731F0828DE80FF11D858D90E00895F7
:100700008FEF9FEF0895FC01918D228D892F90E04E
:10071000805C9F4F821B91098F73992708958FE307
:1007200093E00E94830321E0892B09F420E0822FCB
:100730000895FC01A48DA80FB92FB11DA35ABF4F76
:100740002C91848D90E001968F739927848FA689D0
:10075000B7892C93A089B1898C91837080648C9324
:10076000938D848D981306C00288F389E02D8081D3
:100770008F7D80830895EF92FF920F931F93CF9305
:10078000DF93EC0181E0888F9B8D8C8D98131AC0CC
:10079000E889F989808185FF15C09FB7F894EE89B3
:1007A000FF896083E889F989808183708064808310
:1007B0009FBF81E090E0DF91CF911F910F91FF905B
:1007C000EF900895F62E0B8D10E00F5F1F4F0F7303
:1007D0001127E02E8C8D8E110CC00FB607FCFACFBE
:1007E000E889F989808185FFF5CFCE010E949903C0
:1007F000F1CFEB8DEC0FFD2FF11DE35AFF4FF0828F
:100800009FB7F8940B8FEA89FB8980818062CFCFF4
:10081000CF93DF93EC01888D8823B9F0AA89BB8937
:10082000E889F9898C9185FD03C0808186FD0DC022
:100830000FB607FCF7CF8C9185FFF2CF808185FF43
:10084000EDCFCE010E949903E9CFDF91CF910895BA
:10085000089590E080E008959C0190913E039923D3
:1008600059F0E0913D038FEF890F80933E03E91B20
:10087000E20FF32FF11D9581892F0895FC0165A3E7
:10088000662399F0449A459A8091B9008E7F8093AF
:10089000B9008091B9008D7F8093B90088E480937E
:1008A000B80084E48093BC00089544984598ECCF48
:1008B000CF93DF93EC011092BC006DA10E943E0427
:1008C0008EA1811106C088E48093B800DF91CF919A
:1008D00008958CE0F9CFCF92DF92EF92FF92CF9301
:1008E000DF93EC010E94AB026B017C0184E98093F1
:1008F000BC008091BC0084FF21C08FA198A5892BEA
:10090000C1F30E94AB02AB01BC014C195D096E0939
:100910007F098FA198A5B0E0A0E0481759076A07A2
:100920007B0738F3CE010E94580483E090E0DF910A
:10093000CF91FF90EF90DF90CF90089581E090E00D
:10094000F6CFCF93DF93EC010E946B0499838883E9
:100950008130910539F0039741F083E690E0DF9113
:10096000CF91089590E080E0FACF8CE090E0F7CF4F
:10097000FC0184819581009741F00E94A10421E04F
:10098000892B09F020E0822F089580859185892B9D
:10099000D1F361E085850E948C016AE070E080E01F
:1009A00090E00E94780221E0EECFCF92DF92EF92AA
:1009B000FF921F93CF93DF93EC01162F0E94AB029F
:1009C0006B017C0184EC111101C084E88093BC00B0
:1009D0008091BC0087FD22C08FA198A5892BC1F30F
:1009E0000E94AB02AB01BC014C195D096E097F0985
:1009F0008FA198A5B0E0A0E0481759076A077B07C8
:100A000038F3CE010E94580483E090E0DF91CF914B
:100A10001F91FF90EF90DF90CF9008958091B900E3
:100A2000887F803581F08091B900887F883571F0AA
:100A30008091B900887F883361F4CE010E94580408
:100A400085E090E0E3CF82E090E0E0CF84E090E0CA
:100A5000DDCF83E690E0DACFCF93DF93EC0161E066
:100A60000E94D5049983888382309105B1F0843047
:100A7000910541F08530910551F0039759F486E0D6
:100A800090E002C08AE090E0DF91CF91089589E084
:100A900090E0FACF83E690E0F7CF90E080E0F4CFEB
:100AA000CF92DF92EF92FF92CF93DF93EC016093AE
:100AB000BB000E94AB026B017C0184E88093BC0008
:100AC0008091BC0087FD25C08FA198A5892BC1F31B
:100AD0000E94AB02AB01BC014C195D096E097F0994
:100AE0008FA198A5B0E0A0E0481759076A077B07D7
:100AF00038F3CE010E94580483E090E09983888304
:100B000086E090E0DF91CF91FF90EF90DF90CF9063
:100B100008958091B900887F8832C9F08091B9002A
:100B20008091B900887F803351F4CE010E946B041C
:100B300084E090E09983888387E090E0E3CFCE0162
:100B40000E94580483E690E099838883DBCF82E09B
:100B500090E09983888390E080E0D4CFFC01848189
:100B60009581009741F00E94500521E0892B09F002
:100B700020E0822F089586819781009749F0DC015B
:100B8000ED91FC910190F081E02D099521E0F1CFEC
:100B900080859185892B69F36EBD00000DB407FE39
:100BA000FDCF8EB5F3CF8F929F92AF92BF92CF922F
:100BB000DF92EF92FF921F93CF93DF93EC01162FFA
:100BC000E42EF22E0E94AB024B015C0184EA80937A
:100BD000BC008091BC0087FD23C08FA198A5892B04
:100BE000C1F30E94AB02AB01BC01481959096A0963
:100BF0007B098FA198A5B0E0A0E0481759076A07C4
:100C00007B0738F3CE010E94580483E090E099837B
:100C1000888382E090E0F1104BC081E090E048C012
:100C20008091B900887F883099F08091B900887FE1
:100C3000803171F08091B900887F883319F083E6A4
:100C400090E0E5CFCE010E94580485E090E0DFCF30
:100C500019821882612F660FE11001C06F5F6093E7
:100C6000BB000E94AB026B017C0184E88093BC0056
:100C70008091BC0087FD28C08FA198A5892BC1F366
:100C80000E94AB02AB01BC014C195D096E097F09E2
:100C90008FA198A5B0E0A0E0481759076A077B0725
:100CA00038F3CE010E94580483E090E09983888352
:100CB000DF91CF911F91FF90EF90DF90CF90BF9089
:100CC000AF909F908F9008958091B900887F883170
:100CD000E9F08091B900887F8034C1F08091B9003B
:100CE0008091B900887F803259F08091B900887F67
:100CF000883431F0CE010E94580483E690E0D6CFCC
:100D0000CE010E946B0484E090E0D0CF82E090E0BE
:100D10009983888390E080E0CBCFFC01848195812A
:100D2000009759F020E041E066850E94D30521E05C
:100D3000892B09F020E0822F089580859185892BE9
:100D4000D1F38485882321F0928583859CBD8DBD58
:100D500060E085850E948C016AE070E080E090E0B0
:100D60000E94780221E0E7CFCF93C82F84E994E076
:100D70000E948D06811104C0C0E08C2FCF91089590
:100D80006EEF84E994E00E94AE058823A9F36C2FEE
:100D900084E994E00E94AE05882371F384E994E02D
:100DA0000E94B804C82F882339F362E370E080E022
:100DB00090E00E947802E1CFCF93DF93CDB7DEB70A
:100DC00028970FB6F894DEBF0FBECDBF98E0E8E1DC
:100DD000F1E0DE01119601900D929A95E1F76430F1
:100DE00008F063E070E0660F771F21E030E02C0F21
:100DF0003D1F620F731FFB019081890F8068289649
:100E00000FB6F894DEBF0FBECDBFDF91CF910C942B
:100E1000B4061F93CF93DF93FA0120812223F1F0D0
:100E2000EA01FC0180818F5FFB016081821B0E94CF
:100E3000DC0610E0811105C080E0DF91CF911F91A9
:100E400008958881181750F46091F30484E994E0C0
:100E50000E941E03892B81F31F5FF3CF81E0EDCF4A
:100E60001F93CF93DF9300D01F92CDB7DEB78B8354
:100E7000162F83E0898383E18A83AE014D5F5F4F44
:100E8000BE016F5F7F4FCE0102960E940907882343
:100E900041F0111101C011E063E084E1811B0E9467
:100EA000DC060F900F900F90DF91CF911F91089566
:100EB000E3EAF4E080818E7F808388600C94B4063E
:100EC000E3EAF4E08081982F9160908389600C942C
:100ED000B40663E083E10E94DC0681110C94600794
:100EE00080E00895CF9384E994E00E948D068111FB
:100EF00004C0C0E08C2FCF9108956CE784E994E0A2
:100F00000E94AE058823A9F36DE284E994E00E9473
:100F1000AE05882371F384E994E00E94B804C82FD9
:100F2000882339F36AE070E080E090E00E94780264
:100F30006AE070E080E090E00E947802DBCF0E94DF
:100F400058070C947207AF92BF92CF92DF92EF9244
:100F5000FF920F931F93CF93DF938C016B017A0164
:100F60000E948D06EC0CFD1CE60181110EC0B12C17
:100F7000A12CC501DF91CF911F910F91FF90EF90B0
:100F8000DF90CF90BF90AF9008955E01AC18BD0880
:100F9000CE15DF0539F06991C8010E94AE058111B7
:100FA000F4CFE5CFC8010E94B804882301F36AE0BA
:100FB00070E080E090E00E947802DBCF1F93CF9337
:100FC000DF93EC01162F0E948D06811106C090E080
:100FD00080E0DF91CF911F910895612FCE010E9493
:100FE000AE058823A1F3CE010E94B804882379F3CB
:100FF0006AE070E080E090E00E94780281E090E09A
:10100000E8CF0F931F93CF93DF93EC01042F122FA0
:1010100020E041E00E94D3059B838A830097A9F4D6
:10102000602FCE010E9450059B838A83009769F44C
:10103000612FCE010E9450059B838A83009729F47B
:10104000CE010E94A1049B838A83DF91CF911F91DF
:101050000F910895FC0124A143A161A587A190A54A
:101060000E94010821E0892B09F020E0822F0895D9
:10107000EF92FF920F931F93CF93DF93EC018B01BD
:10108000262F220F220F220F7C0188E4E80EF11C8C
:1010900048896881F701808191810E940108892B2C
:1010A000D9F4980185E0369527958A95E1F7498925
:1010B0006881F701808191810E94010831E020E080
:1010C000892B09F430E0832F922FDF91CF911F916C
:1010D0000F91FF90EF90089581E090E0F6CFEF92AE
:1010E000FF920F931F93CF93DF93FC01E956FE4FBE
:1010F00020812223C1F1EC017C018AE3E80EF11C7E
:10110000739660817181828193810E94F62A8E019B
:1011100005571F4F6115710501F1C957DF4F9B013D
:1011200050E040E0688179818A819B810E94DF29BB
:10113000F80131832083F80160817181C7010E9429
:10114000380821E0892B09F020E0822FDF91CF9130
:101150001F910F91FF90EF9008958FEF9FEFF8018F
:1011600091838083E8CF21E0F0CFCF93DF93EC0130
:1011700060E00E94D504998388838430910599F0BA
:101180008330910599F08530910539F0029741F44B
:101190008BE090E0DF91CF91089589E090E0FACF65
:1011A00083E690E0F7CF90E080E0F4CF86E090E037
:1011B000F1CFEF92FF920F931F93CF93DF93EC0148
:1011C000162F042F790110923E031C8220E041E08B
:1011D0000E94D3059B838A83009751F5602FCE012F
:1011E0000E9450059B838A83009711F521E040E01F
:1011F000612FCE010E94D3059B838A830097C1F49F
:101200008C8181111CC0CE010E94B5089B838A830A
:10121000009771F48091BB00F701808381E0809397
:101220003E0380933D03CE010E94A1049B838A83E9
:10123000DF91CF911F910F91FF90EF900895CE0114
:101240000E942C05E3CF1F93CF93DF93182FD62F47
:10125000C42F80918704909188049C012B5F3F4F9D
:10126000412F60913F040E94D908892BE9F48091B5
:101270008704909188040E942C042D2F28232C2B66
:10128000412F60913F0480918704909188040E94CF
:10129000010831E020E0892B09F430E0832F922F00
:1012A000DF91CF911F91089581E090E0F9CFEF9207
:1012B000FF920F931F93CF93DF938C017C0182E801
:1012C000E80EF11CF701808191819C012B5F3F4F5B
:1012D000F6974081F80162AD0E94D908892B41F050
:1012E00080E0DF91CF911F910F91FF90EF900895D3
:1012F000F701808191810E942C04C82FD0E0DC2F5F
:10130000CC27F701808191819C012B5F3F4FF80131
:10131000E35BFF4F4081F80162AD0E94D908892B41
:10132000F9F6F701808191810E942C04C82BF80105
:10133000E957FF4F83E0D695C7958A95E1F79E015F
:1013400050E040E060817181828193810E94DF29B9
:10135000F801E357FF4F31832083E801CA55DE4F80
:10136000B90190E080E00E948B28688379838A83AA
:101370009B8381E0B6CFBF92CF92DF92EF92FF9234
:101380000F931F93CF93DF93EC010FA118A569A5CD
:1013900010923E0385E0F801848320E040E0C8011C
:1013A0000E94D305F801938382836801F5E0CF0E94
:1013B000D11CF12C892B59F080E0DF91CF911F9146
:1013C0000F91FF90EF90DF90CF90BF900895F801BC
:1013D00084818F118DC0C8010E94B508F8019383E4
:1013E0008283892B49F78091BB00F60181936F01BD
:1013F000F394F0923E03F0923D03F6E0FF12E7CF44
:10140000C8010E94A104F80193838283892BA1F66D
:101410008E010B5E1F4F6E01FBE1CF0ED11C8FA121
:1014200098A520913E03222339F20E942C04F80152
:1014300081938F01CE16DF0691F70D890B8FFE8801
:10144000FC8EEF88188D1D8FB98CBE8E62E0C601B0
:101450000E94CD00E812B0CF62E0CE014D960E940E
:10146000CD009A8D9813A8CF702F6F2D90E080E05B
:101470000E948B2823E330E04FE25BE30E94EC28DC
:1014800020E030E044E352E40E94102A6B017C012A
:10149000CEA6DFA6E8AAF9AA712F6B2D90E080E016
:1014A0000E948B2825EB30E048EC5AE30E94EC28A0
:1014B0006AA77BA78CA79DA78E010B571E4F2AA951
:1014C0003BA94CA95DA90E94EC282EA93FA948ADD3
:1014D00059AD0E94112AF80160837183828393833E
:1014E000CE56DE4FC882D982EA82FB8281E065CF88
:1014F000C8010E942C0572CFCF93C82F6EE58FE3F1
:1015000093E00E941E0362E78FE393E00E941E03B4
:101510006CE78FE393E00E941E036C2F8FE393E050
:101520000E941E036CE78FE393E00E941E0369E7AD
:101530008FE393E00E941E0360E48FE393E00E9438
:101540001E036AE08FE393E0CF910C941E03CF92C9
:10155000DF92EF92FF921F93CF93DF93EC01162F50
:101560006C018AE3C80ED11CFE01E557FF4F7F01D5
:10157000662309F445C0E15EFE4F6081718182817E
:1015800093810E94F62A6115710509F19B0150E0D3
:1015900040E0FE01E957FF4F6081718182819381B4
:1015A0000E94DF29F70131832083F7016081718177
:1015B000C6010E943808892B81F010E0812FDF914D
:1015C000CF911F91FF90EF90DF90CF9008958FEF14
:1015D0009FEFF70191838083E8CFFE01E759FE4F2B
:1015E00060E080810E948C01FE01E559FE4F61E0C0
:1015F00080810E948C01C956DE4F81E08883DECF56
:101600008FEF9FEF918380836FEF7FEFC6010E9482
:101610003808892B91F6FE01E759FE4F61E0808181
:101620000E948C01FE01E559FE4F60E080810E941E
:101630008C01C956DE4F188211E0C0CFFB0101902A
:101640000020E9F73197AF01461B570BDC01ED9104
:10165000FC910280F381E02D09948F929F92AF92CA
:10166000BF92EF92FF920F931F93CF93DF93CDB76B
:10167000DEB7A1970FB6F894DEBF0FBECDBF7C01D9
:10168000FA01CB0119A2223008F42AE08E010F5D85
:101690001F4F822E912CB12CA12CBF01A5019401CA
:1016A0000E94DF29F901CA016A300CF5605DD8019A
:1016B0006E938D01232B242B252B79F790E080E06E
:1016C000109721F0BD01C7010E941E0BA1960FB615
:1016D000F894DEBF0FBECDBFDF91CF911F910F9168
:1016E000FF90EF90BF90AF909F908F900895695CAE
:1016F000DECF009729F0BC0184E994E00C941E0B26
:1017000090E080E00895CF93C82F62E080E00E94CF
:10171000DC0680917B058823C9F08EE195E0C1113C
:1017200002C083E295E00E94790B63E080E00E94B2
:10173000DC0680919C05882361F08EE195E0C11163
:1017400002C083E295E0CF910C94790B88E295E09A
:10175000EACF88E295E0F7CFEF92FF920F931F93C5
:10176000CF93DF9300D0CDB7DEB703E315E0F801E8
:1017700001900020E9F79F012453354080911B051B
:10178000821B8983F80101900020E9F79F0124530F
:10179000354087E3E82E85E0F82EF7018081821B33
:1017A0008A83AE014F5F5F4F69E375E0CE01029619
:1017B0000E940907F80101900020E9F78F01045306
:1017C0001540F70180818F5F60913905801B0E9471
:1017D000DC0683E395E00E94790B0F900F90DF9178
:1017E000CF911F910F91FF90EF900895FF920F936B
:1017F0001F93CF93DF9300D01F92CDB7DEB78C013C
:10180000F42E2B83FC0101900020E9F73197E81BAF
:10181000F90B6E1B6983FC0101900020E9F73197F9
:10182000E81BF90B842F8E1B8A83AE014F5F5F4F3D
:10183000BE016D5F7F4FCE0102960E940907F8013D
:1018400001900020E9F73197E01BF10B81E08F0D4B
:101850006B818E1B0E94DC06C8010E94790B0F90E1
:101860000F900F90DF91CF911F910F91FF900895EE
:101870002F923F924F925F926F927F928F929F92A0
:10188000AF92BF92CF92DF92EF92FF921F93CF93CE
:10189000DF93EC016A017B01722EAB019601CB0153
:1018A000B6010E94DD2B60E571E0811126C0460182
:1018B0005701E894B7F82FEF3FEF4FE75FE7C50117
:1018C000B4010E94DD2B81110CC02FEF3FEF4FE7D9
:1018D0005FE7C501B4010E94862864E571E018162F
:1018E00064F02FEF3FEF4FE75FE4C701B6010E94BE
:1018F000252B1816B4F468E571E0CE01DF91CF9185
:101900001F91FF90EF90DF90CF90BF90AF909F908E
:101910008F907F906F905F904F903F902F900C949E
:101920001E0B2FEF3FEF4FE75FECC701B6010E94A0
:10193000862887FDE0CF20E030E0A901C701B6018D
:101940000E948628312C212C87FF09C06DE2CE0130
:101950000E941E031C01F7FAF094F7F8F09410E0CF
:1019600060E070E080E09FE3711641F020E030E03D
:1019700040E251E40E947D2A1F5FF6CFA701960145
:101980000E94112A2B013C010E94F62A4B015C01A6
:101990002AE0BC01A401CE010E942D0B7C01E20CC7
:1019A000F31C1123C1F1C501B4010E948B289B01D6
:1019B000AC01C301B2010E94102A4B015C016EE22E
:1019C000CE010E941E03E80EF91E115020F120E006
:1019D00030E040E251E4C501B4010E94EC282B0143
:1019E0003C010E94F62A4B01B12CA12C2AE0B50142
:1019F000A401CE010E942D0BE80EF91EC501B40111
:101A00000E948B289B01AC01C301B2010E94102AE5
:101A10004B015C01DACFC701DF91CF911F91FF909D
:101A2000EF90DF90CF90BF90AF909F908F907F907E
:101A30006F905F904F903F902F900895242FAB01AF
:101A4000BC0184E994E00E94380C21E0892B09F460
:101A500020E0822F0895FB012081222351F1609123
:101A60006405FC012081621720F520916305211196
:101A700020C0209165052223E1F06F5F609364052B
:101A800021E02093630580810E9430076091670503
:101A9000709168058091690590916A0540E00E9407
:101AA0001E0D6091F20484E994E00E941E030C94E0
:101AB000690708956115710579F0FB010190002017
:101AC000E9F73197AF01461B570BDC01ED91FC9113
:101AD0000280F381E02D099490E080E008954F9218
:101AE0005F926F927F928F929F92AF92BF92CF92AE
:101AF000DF92EF92FF920F931F93CF93DF931F928A
:101B0000CDB7DEB7898380916405FB019081891789
:101B100008F05BC0FA017B0190916305992309F4F9
:101B200066C0609166059081691708F04EC001E0BB
:101B3000080F0093640511E0160F1093660580905E
:101B4000670590906805A0906905B0906A05CE0180
:101B500001960E9434286C01612F70E090E080E0D3
:101B60000E948B289B01AC0160E070E080E291E470
:101B70000E94822B2B013C01B601DD0C880B990BD6
:101B80000E948D28A30192010E947D2AA501940143
:101B90000E94112A60936705709368058093690518
:101BA00090936A05602FF70180810E943007609151
:101BB0006705709168058091690590916A0540916B
:101BC00066050E941E0D0E9469070F90DF91CF915C
:101BD0001F910F91FF90EF90DF90CF90BF90AF904B
:101BE0009F908F907F906F905F904F90089511E03D
:101BF000180F10936405809165058F5F80936505CC
:101C000020E030E040E251E46091670570916805A2
:101C10008091690590916A050E94EC284B015C0156
:101C20008092670590926805A0926905B0926A0556
:101C3000CE0101960E943428BC01990F880B990BA4
:101C40000E948D28A50194010E94112A60936705C6
:101C5000709368058093690590936A05612FF70179
:101C600080810E94300760916705709168058091BE
:101C7000690590916A0540E0A4CF8F929F92AF9240
:101C8000BF92CF92DF92EF92FF920F931F93CF9369
:101C9000C0916405CC2309F4BAC08C01C150809175
:101CA0006305882309F489C060916605662309F4F9
:101CB00071C0615060936605C0936405C09067056C
:101CC000D0906805E0906905F0906A05662399F167
:101CD00070E090E080E00E948B289B01AC0160E006
:101CE00070E080E291E40E94822B4B015C01A7012D
:101CF00096010E94EC280E94D22BA50194010E941B
:101D00007D2A6093670570936805809369059093B9
:101D10006A056C2FF80180810E9430076091670589
:101D2000709168058091690590916A0540916605FA
:101D30000E941E0D22C0C701B6010E94D22B6093E3
:101D40006705709368058093690590936A056C2F09
:101D5000F80180810E9430076091670570916805E5
:101D60008091690590916A0540E00E941E0D609186
:101D7000F20484E994E00E941E03CF911F910F9119
:101D8000FF90EF90DF90CF90BF90AF909F908F909B
:101D90000C946907C0936405109263056C2FF801D9
:101DA00080810E943007609167057091680580917D
:101DB000690590916A0540E0BBCF8091650581502F
:101DC00080936505C093640520E030E040E251E473
:101DD00060916705709168058091690590916A0529
:101DE0000E947D2A0E94D22B60936705709368053C
:101DF0008093690590936A056C2FF80180810E9499
:101E0000300780916405882309F4B7CFCCCFCF91F8
:101E10001F910F91FF90EF90DF90CF90BF90AF9008
:101E20009F908F90089560E00C94B229FF920F93D9
:101E30001F93CF93DF938C01EB01F8800E94AA29B6
:101E4000F81621F06F2DC8010E94B229CE01DF9152
:101E5000CF911F910F91FF9008959F92AF92BF92E3
:101E6000CF92DF92EF92FF920F931F93CF93DF9366
:101E70005C017B018B01D0E0C0E0F80191908F0103
:101E80006501CC0EDD1EC6010E94AA29981621F01C
:101E9000692DC6010E94B2292196C430D10569F787
:101EA000C701DF91CF911F910F91FF90EF90DF90CD
:101EB000CF90BF90AF909F900895CF92DF92EF9216
:101EC000FF920F931F93CF93DF93EB017B0124E0ED
:101ED000E20EF11C8B016C01C61AD70AC601800FF5
:101EE000911F0E94AA29F80181938F01EE15FF0529
:101EF000A9F7CE01DF91CF911F910F91FF90EF9045
:101F0000DF90CF900895CF93DF93EB010E94AA2931
:101F10008883CE01DF91CF910895CF92DF92EF9227
:101F2000FF921F93CF93DF931F92CDB7DEB7182F89
:101F30006B017A01882309F44BC080910C04BE0127
:101F40006F5F7F4F90E00E94830F80910D04B60178
:101F500090E00E945D0F80910E04B70190E00E9416
:101F60005D0FF7012081318142815381F60160814B
:101F70007181828193810E94E1009981891709F41E
:101F800053C01123B1F18091120490911304A091D8
:101F90001404B0911504F60180839183A283B38366
:101FA0008091120490911304A0911404B09115042F
:101FB000F70180839183A283B38310E0812F0F9078
:101FC000DF91CF911F91FF90EF90DF90CF90089518
:101FD00080910F04BE016F5F7F4F90E00E94830FDE
:101FE00080911004B60190E00E945D0F8091110471
:101FF000B4CF8091160490911704A0911804B09169
:102000001904F60180839183A283B383809116041F
:1020100090911704A0911804B0911904F7018083DE
:102020009183A283B383CACF11E0C8CF4F925F924E
:102030006F927F928F929F92AF92BF92CF92DF92D8
:10204000EF92FF920F931F93CF93DF93CDB7DEB73D
:1020500068970FB6F894DEBF0FBECDBFAE01475FE5
:102060005F4FBE01635F7F4F81E00E948D0F182F8D
:10207000AE014F5F5F4FBE016B5F7F4F80E00E94FC
:102080008D0F082FCD80DE80EF80F8844D845E8434
:102090006F84788889809A80AB80BC8089859A8596
:1020A000AB85BC85898B9A8BAB8BBC8BA3019201D2
:1020B000C701B6010E94102A6D8B7E8B8F8B988F83
:1020C00029893A894B895C89C501B4010E94102A8B
:1020D0009B01AC016D897E898F89988D0E947D2A34
:1020E0009B01AC01209337043093380440933904AA
:1020F00050933A04112359F169897A898B899C8913
:102100000E94EC289B01AC01C301B2010E94102A7D
:1021100060933B0470933C0480933D0490933E0491
:1021200068960FB6F894DEBF0FBECDBFDF91CF919A
:102130001F910F91FF90EF90DF90CF90BF90AF90E5
:102140009F908F907F906F905F904F9008950023A5
:1021500049F0C501B4010E94EC289B01AC01C70104
:10216000B601D4CF10923B0410923C0410923D046F
:1021700010923E04D5CFCF92DF92EF92FF921F9341
:10218000CF93DF93CDB7DEB729970FB6F894DEBFB4
:102190000FBECDBF209104053091050523303105D8
:1021A00009F4ABC1B0F42130310509F447C0223045
:1021B000310509F405C129960FB6F894DEBF0FBEAC
:1021C000CDBFDF91CF911F91FF90EF90DF90CF9027
:1021D00008952530310509F43DC208F4FCC12630CC
:1021E000310549F7E0910904F0910A04278D30A1E7
:1021F0002130310501F78533F1F680910C0490E030
:102200000E94130F80910D0490E00E94130F8091A3
:102210000E0490E00E94130F80910F0490E00E9442
:10222000130F8091100490E00E94130F809111040D
:1022300090E00E94130F0E9416106CC2883609F4B9
:1022400046C0833709F1863609F0B5CFE09109041D
:10225000F0910A04878D90A120919C05222309F416
:1022600096C0029709F0A7CF0E94AB0260930D05BC
:1022700070930E0580930F0590931005109208053A
:1022800021E0209309053FC0E0910904F0910A0480
:10229000878D90A1019709F08ECF1092670510925B
:1022A00068051092690510926A05109264051092F3
:1022B0006505109266051092630581E0809307051D
:1022C00082E090E0909305058093040574CFE0913F
:1022D0000904F0910A04878D90A120917B052223A7
:1022E00009F1029709F067CF0E94AB0260930D05D8
:1022F00070930E0580930F059093100521E02093B5
:102300000805109209058091F6049091F70468EE93
:1023100073E00E94FA2C609315052093070587E06F
:1023200090E0D0CF039709F046CF80910A05811144
:102330002BC061E080916F050E948C0181E0809349
:102340007B051092DB041092DC041092DD041092E5
:10235000DE04E091C104F091C20480819181A281E8
:10236000B3818093D7049093D804A093D904B093F9
:10237000DA040E94AB026093C7047093C804809390
:10238000C9049093CA0417CF10920A0514CF03977B
:1023900009F011CF80910B0581110FC010E08091E1
:1023A000F104181708F007CF61E085E094E00E947F
:1023B000A70A811100CF1F5FF2CF10920B05FBCE51
:1023C000E0910904F0910A04278D30A121303105F4
:1023D00009F0F1CE8A336CF480330CF082C08E3277
:1023E00009F0E9CE60E675E08FE595E00E942B0DDF
:1023F000E2CE843609F47CC0833709F0DCCE8091CC
:102400006405882309F464C0C0906705D09068050E
:10241000E0906905F0906A0520918405309185056A
:102420004091860550918705C701B6010E94252B72
:10243000181644F411E010930C051093070589E079
:1024400090E015C020918005309181054091820572
:1024500050918305C701B6010E94862887FF1AC0E4
:1024600011E010930C051093070588E090E090931D
:102470000505809304050E94AB0260935B05709391
:102480005C0580935D0590935E051093590510924D
:102490005A0591CEC0928E05D0928F05E09290059C
:1024A000F0929105109267051092680510926905E7
:1024B00010926A05109264051092650510926605E7
:1024C0001092630581E08093070583E090E0FACEE7
:1024D00010926705109268051092690510926A05BE
:1024E000EBCF40E655E06FE575E00E946F0D63CEDF
:1024F0008FE595E00E943D0E5ECEE0910904F091DB
:102500000A04278D30A12130310509F054CE8A33D9
:102510005CF480330CF057C08E3209F04CCE62E68A
:1025200075E081E695E062CF843609F451C08337C7
:1025300009F041CE80916405882309F4DBC0C09086
:102540006705D0906805E0906905F0906A052091D4
:10255000A2053091A3054091A4055091A505C7019E
:10256000B6010E94252B181624F410920C0511E0D8
:1025700064CF20919E0530919F054091A005509118
:10258000A105C701B6010E94862887FF04C01092EA
:102590000C0511E068CFC092AF05D092B005E09273
:1025A000B105F092B20510E08091F104181708F01F
:1025B000A1C0B701A60185E094E00E946F088111D7
:1025C00099C01F5FF1CF42E655E061E675E08DCF1F
:1025D00081E695E08FCFE0910904F0910A04278D00
:1025E00030A12130310509F0E6CD823349F15CF4A8
:1025F000813309F0E0CD81E080933D0580930705AC
:1026000085E090E05FCE8333F9F0833709F0D3CDD6
:1026100010926705109268051092690510926A057C
:10262000109264051092650510926605109263057C
:1026300081E0809307053093050520930405BBCD09
:1026400010923D0581E0DACF81E08093070586E0B6
:1026500090E038CEE0910904F0910A04278D30A172
:102660002130310509F0A7CD8A330CF4B5CE84367C
:1026700009F43ECF833709F09ECD8091640588230D
:10268000C9F120912F0430913004409131045091D0
:102690003204609167057091680580916905909199
:1026A0006A0510913D056D837E838F83988729830A
:1026B0003A834B835C830E94E1008987112381F177
:1026C00080910C04BE01675F7F4F90E00E94160F5F
:1026D00080910D04BE016B5F7F4F90E00E942D0F33
:1026E00080910E04BE016F5F7F4F90E00E942D0F1E
:1026F0000E941610109267051092680510926905E5
:1027000010926A0510926405109265051092660594
:102710001092630581E08093070584E090E0D2CDBC
:1027200080910F04BE01675F7F4F90E00E94160FFB
:1027300080911004BE016B5F7F4F90E00E942D0FCF
:1027400080911104CFCF4F925F926F927F928F92C0
:102750009F92BF92CF92DF92EF92FF920F931F93BF
:10276000CF93DF93CAE2D6E040E8C42E09EA16E030
:1027700050ECE52E56E0F52E64E1B62E8FE393E0A3
:102780000E948303892B09F4B8C08FE393E00E9471
:1027900075038E35910509F087C0DE01EC2D1D9281
:1027A000EA95E9F73AE2832E36E0932E0E94AB02D7
:1027B00060934703709348038093490390934A03BF
:1027C0008FE393E00E94610397FF7AC00E94AB02FF
:1027D00040904703509048036090490370904A032B
:1027E0006419750986099709409043035090440382
:1027F000609045037090460364157505860597053E
:10280000F8F260E470E08AE296E00E94142D0097EE
:1028100009F4B4CFAC014A525640FC0181818111C8
:10282000ADCFD701EC2D1D92EA95E9F74150550B3C
:102830006BE276E080EC96E00E94262D63E276E083
:1028400080EC96E00E945228009709F497CFDC01B3
:102850002C91243631F0233709F090CF9090250643
:1028600002C090902406D12CD3942D2D2150330BEF
:10287000F901EE0FFF1FE254F94F40815181DA0157
:102880002B2D1D922A95E9F7BC01808191810E9430
:102890001F2D63E276E090E080E00E9452289D14B4
:1028A000D8F0009709F76ACF8FE393E00E946103A5
:1028B00065CF81E08093B30584E60E947C0A5ECFF9
:1028C0008A30910509F49DCFD4018D934D010A17EB
:1028D0001B0709F06BCF95CF892B09F04FCFE09103
:1028E000BE06F091BF068081843619F3833709F064
:1028F00045CF1092B30583E7E0CFDF91CF911F91D1
:102900000F91FF90EF90DF90CF90BF909F908F90AE
:102910007F906F905F904F9008950E948F03811178
:102920000C94A31308950E942A2B0E94F62A81E09A
:10293000860F08958F929F92AF92BF92CF92DF92AF
:10294000EF92FF920F931F93CF93DF938C01EB01D4
:102950007A016901FC0180809180A280B38020E02F
:1029600030E0A901C501B4010E948628181634F58B
:10297000C501B4010E9493142881F6016081F7011A
:1029800090812223E9F0921B981B892F0E94DC067C
:10299000F8014081518162817381288184E994E04A
:1029A000DF91CF911F910F91FF90EF90DF90CF902B
:1029B000BF90AF909F908F900C94380C81E0DCCF4B
:1029C0009F5FE2CF3F924F925F926F927F928F9282
:1029D0009F92AF92BF92CF92DF92EF92FF920F93AE
:1029E0001F93CF93DF93CDB7DEB728970FB6F89438
:1029F000DEBF0FBECDBF4B015C01142F4E83322EC4
:102A00000F83E886642F70E090E080E00E948B28BE
:102A10009B01AC0160E070E080E291E40E94822BB7
:102A20002B013C01A50194010E94EC286B017C0163
:102A300020E030E0A9010E94252B20E030E040E0BA
:102A40005FE387FD57C0C701B6010E94112A0E94AB
:102A5000EF2A0E948D28A30192010E947D2A6B011A
:102A60007C0120E030E0A9010E94862818160CF0B5
:102A700046C0C701B6010E949314112311F01F5FD5
:102A8000810FB32CB81AB9829F81981B9D83AE0128
:102A90004F5F5F4FBE01685F7F4FCE0105960E947A
:102AA0000907C982DA82EB82FC829E01285F3F4FD0
:102AB000AE01495F5F4FBE016A5F7F4FCE01019655
:102AC0000E949A1428960FB6F894DEBF0FBECDBFB1
:102AD000DF91CF911F910F91FF90EF90DF90CF90FA
:102AE000BF90AF909F908F907F906F905F904F902E
:102AF0003F900895C701B6010E94102AA8CF81E037
:102B0000BCCFCF92DF92EF92FF926091150570E0FB
:102B100090E080E00E948B286B017C0120E030E097
:102B2000A9010E9486281816C4F4C701B6010E94A4
:102B3000931462E094E0981B892F0E94DC06409178
:102B4000150550E070E060E02AE084E994E0FF9031
:102B5000EF90DF90CF900C942D0B81E0EACFCF92D5
:102B6000DF92EF92FF92CF936B017C01C42F20E0A4
:102B700030E0A9010E9486281816E4F4C701B601C6
:102B80000E949314CC2319F091E09C0F890F869535
:102B900062E099E0981B892F0E94DC062C2FB70178
:102BA000A60184E994E0CF91FF90EF90DF90CF9061
:102BB0000C94380C81E0E6CF1F920F920FB60F9263
:102BC00011242F933F938F939F93AF93BF93809143
:102BD000350390913603A0913703B09138033091BB
:102BE000340323E0230F2D3758F50196A11DB11DA5
:102BF000209334038093350390933603A0933703D7
:102C0000B09338038091390390913A03A0913B032C
:102C1000B0913C030196A11DB11D8093390390939F
:102C20003A03A0933B03B0933C03BF91AF919F91B4
:102C30008F913F912F910F900FBE0F901F9018957D
:102C400026E8230F0296A11DB11DD2CF1F920F922D
:102C50000FB60F9211242F933F934F935F936F936F
:102C60007F938F939F93AF93BF93EF93FF938FE3E4
:102C700093E00E949903FF91EF91BF91AF919F91D3
:102C80008F917F916F915F914F913F912F910F9015
:102C90000FBE0F901F9018951F920F920FB60F92B4
:102CA00011242F938F939F93EF93FF93E0914F0302
:102CB000F09150038081E0915503F091560382FD1D
:102CC0001BC09081809158038F5F8F7320915903AF
:102CD000821741F0E0915803F0E0E15CFC4F958FE2
:102CE00080935803FF91EF919F918F912F910F90B7
:102CF0000FBE0F901F9018958081F4CF2F923F92B6
:102D00004F925F926F927F928F929F92AF92BF92FB
:102D1000CF92DF92EF92FF920F931F93CF93DF93A7
:102D2000109242031092410388EE93E0A0E0B0E0DD
:102D30008093430390934403A0934503B0934603C9
:102D40008AE291E09093400380933F0385EC90E00A
:102D500090934C0380934B0384EC90E090934E034C
:102D600080934D0380EC90E09093500380934F0349
:102D700081EC90E0909352038093510382EC90E0B9
:102D8000909354038093530386EC90E09093560302
:102D900080935503109258031092590310925A03CE
:102DA00010925B038CE78093230610922406109206
:102DB000250681E080932606809327061092280638
:102DC0008AEA96E09093BF068093BE061092B605FD
:102DD0001092BA051092B9051092BB058AE491E0F1
:102DE0009093B5058093B405E0EDF5E01082148270
:102DF00013821582369646E0EC30F407B9F784E08A
:102E000091E0909317068093160680E091E09093EE
:102E100019068093180614E010931A0610931B06E7
:102E200088E091E090931506809314068AE090E084
:102E300090931D0680931C0664EF71E070931F064B
:102E400060931E0610922206109221061092100620
:102E5000109211061092120610921306109220067C
:102E600083E296E090930604809305048CED93E052
:102E7000909308048093070424EB35E030930A0410
:102E80002093090424E4822E80920B043AE0732EEE
:102E900070920C044CE0A42EA0920D0450E1E52E9B
:102EA000E0920E0464E1562E50920F0426E1209326
:102EB00010043AE13093110440E050E060E87FE311
:102EC00040931204509313046093140470931504F8
:102ED00040E050E068EC72E440931604509317040D
:102EE00060931804709319043CE23093240476E054
:102EF000C72EC09225043DE030932604E0922704BB
:102F000034E230932804109229043BE030932A04E1
:102F100020932B0490932D0480932C0480922E04F4
:102F20000E94161020910704309108045FE250932C
:102F30003F0480E090E0A0E0B7E4809340049093E9
:102F40004104A0934204B093430488EF9FEF909311
:102F50004504809344044DE24093460440E340938B
:102F6000470441E34093480442E34093490443E368
:102F700040934A0446E340934B0447E340934C0498
:102F800048E340934D0449E340934E04ECE3FE2EA6
:102F9000F0924F044DE340935004DEE3D09351048C
:102FA0006FE36093520410925304DD24D394D092C3
:102FB000540402E000935504F3E0BF2EB09256048F
:102FC00040E8409357044FE9409358041092590445
:102FD000C0E2C0935A04E0E4E0935B0440E640930F
:102FE0005C0477EE70935D0410925E0458E0509399
:102FF0005F04E092600448E140936104F8EFF093CD
:10300000620410926304D092640400936504B09249
:10301000660410936704A5E09A2E90926804C0920B
:103020006904B7E06B2E60926A04E0936B04C0936E
:103030006C0470936D0410926E0450936F04E092D0
:1030400070044093710479EF7093720410927304CA
:103050000093740410937504C0927604C0937704AF
:1030600073EE709378041092790410937A0450935D
:103070007B04A0927C04E0927D0450927E044093F5
:103080007F044CE1409380044CEF40938104109204
:103090008204D092830400938404B09285046093E8
:1030A00086043093880420938704009389049092C7
:1030B0008A0400938B0410929304109292049093CC
:1030C00091048093900480E090E0A8E7B0E08093C2
:1030D0008C0490938D04A0938E04B0938F0410926F
:1030E0009704109296048CE391E09093950480935A
:1030F0009404109299041092980410929B041092D8
:103100009A0410929D0410929C0483E580939E047F
:1031100010929F041092A0047092A10482E7809301
:10312000A2041093A3040093A4040E94AB02AB0179
:10313000BC0182E995E09093C4048093C3048AE8BB
:1031400095E09093C2048093C1048EE895E090933B
:10315000C6048093C5041092EF041092E704109205
:10316000E8041092E9041092EA0480E090E0AFE7EE
:10317000B3E48093EB049093EC04A093ED04B0933C
:10318000EE041092BE041092BD041092C00410927E
:10319000BF041092F004212C312C80EA482E80E4E8
:1031A000582E2092A5043092A6044092A704509273
:1031B000A8048FE692E1A3E8BAE38093A904909370
:1031C000AA04A093AB04B093AC041092AD04109287
:1031D000AE041092AF041092B0042092B104309269
:1031E000B2044092B3045092B4048093B504909317
:1031F000B604A093B704B093B8041092B904109227
:10320000BA041092BB041092BC044093C7045093BC
:10321000C8046093C9047093CA047092F1048EE2EA
:103220008093F204C093F304D093F4041092F50455
:1032300088EB9BE09093F7048093F6048FEF9FEF69
:10324000AFEFB0E08093F8049093F904A093FA04F0
:10325000B093FB041092FC041092FD041092FE0443
:103260001092FF0480E197E2A0E0B0E080930005B7
:1032700090930105A0930205B093030560921B058E
:1032800064EF71E070931D0560931C05D0931E05DB
:10329000D0931F05C0932005C093210510922205ED
:1032A000C0932305C0932405D0932505D09326050C
:1032B0001092270589E480932805809229058CE4E3
:1032C00080932A0585E480932B0510922C0580932A
:1032D0002D0582E580932E0580932F059FE4909322
:1032E000300580933105109232058EE480933305CA
:1032F0007FE27093340581E48093350510923605A2
:103300008FE08093370500933805B092390590928D
:103310003A0520ED37E030933C0520933B05D093F0
:103320004205F0924305D0934405D0934505D093D0
:103330004605D0934705D093480510924905F09271
:103340004A05F0924B05F0924C05F0924D05F09233
:103350004E0510924F05C0935005C0935105C09380
:103360005205C0935305C0935405109255052CEB9C
:1033700032E03093570520935605C09258051093BC
:103380005F05D0926005109361051092620599E087
:1033900090936B059EE090936C0580936D05E09291
:1033A0006E05A0926F0581E1809370058BE391E03B
:1033B000909376058093750588EE93E09093780559
:1033C00080937705109280051092810510928205F6
:1033D0001092830580E090E0A8ECB2E4809384052D
:1033E00090938505A0938605B093870586E4809326
:1033F00088058FEF8093890580E090E0A6E9B4E42A
:1034000080939E0590939F05A093A005B093A1057E
:1034100080E090E6AAEEB5E48093A2059093A30520
:10342000A093A405B093A50580E090E0AAEFB3E4D3
:103430008093A6059093A705A093A805B093A9052E
:103440008EE18093AA051092B30560E089E00E94A6
:103450008C0160E080916C050E948C0160E080919D
:103460006D050E948C0161E080916E050E948C01C7
:1034700060E080916F050E948C0160E08091700592
:103480000E948C0161E080916B050E94BA0161E0AD
:1034900080916C050E94BA0161E080916D050E94E7
:1034A000BA0161E080916E050E94BA0161E08091ED
:1034B0006F050E94BA0161E0809170050E94BA0117
:1034C0001092790510927B0510927C0510927D0573
:1034D00010927A0510927E0510927F0510920805D1
:1034E00010920A0510929B0510929C0510929D0562
:1034F0001092090510920B05DF91CF911F910F914A
:10350000FF90EF90DF90CF90BF90AF909F908F9003
:103510007F906F905F904F903F902F900895CF9342
:10352000DF93CDB7DEB7AA970FB6F894DEBF0FBE14
:10353000CDBF789484B5826084BD84B5816084BD3C
:1035400085B5826085BD85B5816085BD80916E0041
:10355000816080936E001092810080918100826072
:1035600080938100809181008160809381008091AF
:1035700080008160809380008091B100846080939E
:10358000B1008091B00081608093B00080917A009A
:10359000846080937A0080917A00826080937A00C0
:1035A00080917A00816080937A0080917A008068AF
:1035B00080937A001092C1001092800010928100D6
:1035C000109285001092840082EA8093800081E14D
:1035D0008093810080E491E090938700809386003F
:1035E00064E670E080E090E00E94780280E991E07B
:1035F00090931F0680931E068BEB90E1909322061A
:1036000080932106E0914F03F091500382E0808384
:10361000E0914B03F0914C031082E0914D03F09147
:103620004E038FEC808310925703E0915303F09187
:10363000540386E08083E0915103F091520380812E
:1036400080618083E0915103F09152038081886012
:103650008083E0915103F0915203808180688083E0
:10366000E0915103F091520380818F7D808381E04E
:103670008093290684E690E09093040480930304E9
:1036800060E08CED93E00E943E041092020488E416
:103690008093B80080910704909108049093990456
:1036A0008093980410929B0410929A0410929D04A7
:1036B00010929C0484E994E00E948D068823D1F145
:1036C0006EEF84E994E00E94AE05882399F1609141
:1036D000A304686084E994E00E94AE05882351F158
:1036E0006EEF84E994E00E94AE05882319F16091A1
:1036F000A404646084E994E00E94AE058823D1F0BC
:103700006CE784E994E00E94AE05882399F06DE2AD
:1037100084E994E00E94AE05882361F084E994E096
:103720000E94B804882331F062E370E080E090E00A
:103730000E947802B090F8041091F9042091FA04E4
:1037400030E0ADE1B0E00E94012AC12CD12C76011D
:10375000CA94A70196010E94C02900E8020F212FF8
:1037600030E0ADE1B0E00E94012AA70196010E947D
:10377000C0291EE9120F2B2D30E0ADE1B0E00E9410
:10378000012AA70196010E94C0298CEBF82EF20EA7
:1037900084E994E00E948D06882309F463C0809137
:1037A000A3048B7F8093A3046EEF84E994E00E94CE
:1037B000AE05882309F456C06091A304686084E9CB
:1037C00094E00E94AE05882309F44CC06CE784E9BC
:1037D00094E00E94AE05882309F444C0602F84E978
:1037E00094E00E94AE058823E9F16CE784E994E057
:1037F0000E94AE058823B1F1612F84E994E00E9414
:10380000AE05882379F16CE784E994E00E94AE0567
:10381000882341F16F2D84E994E00E94AE0588234E
:1038200009F18091A30484608093A3046EEF84E97E
:1038300094E00E94AE058823A9F06091A30468601B
:1038400084E994E00E94AE05882361F084E994E065
:103850000E94B804882331F062E370E080E090E0D9
:103860000E9478028091A3048B7F8093A3048860D8
:103870000E94B40684E994E00E948D06882309F131
:103880006CE784E994E00E94AE058823D1F068E1FA
:1038900084E994E00E94AE05882399F060E084E911
:1038A00094E00E94AE05882361F084E994E00E94D0
:1038B000B804882331F06AE070E080E090E00E9474
:1038C00078020E9472078091A304982F94609093CD
:1038D000A3048C600E94B40660ED77E080E090E085
:1038E0000E94780260E080E00E94DC066CE571E0F6
:1038F00084E994E00E941E0B61E080E00E94DC06F7
:1039000061E771E084E994E00E941E0B62E080E0D0
:103910000E94DC0666E871E084E994E00E941E0BD8
:1039200063E080E00E94DC066CE571E084E994E0ED
:103930000E941E0B60ED77E080E090E00E9478022C
:1039400040915704642F6095809149040E94230997
:103950006091A6057091A7058091A8059091A90591
:103960000E94F62A1091590481E0683E23E0720714
:1039700080F010915A0482E0603D37E0730748F010
:1039800010915B0484E0603A7F4018F010915C0471
:1039900088E08093890460918A046150770B072E38
:1039A000000C880B990B0E948D28209140043091C7
:1039B000410440914204509143040E94EC2820E0CD
:1039C00030E040E752E40E94EC286B017C016091FA
:1039D000890470E090E080E00E948D289B01AC019A
:1039E000C701B6010E94EC286B017C0160918B0439
:1039F00070E090E080E00E948D289B01AC01C7013F
:103A0000B6010E947D2A0E94F62A60938C0470936E
:103A10008D0480938E0490938F04412F60915804FD
:103A2000809149040E9423094091790460917804AF
:103A300080914B040E9423096091A6057091A7050F
:103A40008091A8059091A9050E94F62AE091890429
:103A5000E15020EA3FE0E33038F4F0E0EE0FFF1FE2
:103A6000E05EFE4F208131816217730708F4B901CF
:103A70009B0150E040E060918C0470918D04809136
:103A80008E0490918F040E94DF2965E0569547953A
:103A9000379527956A95D1F740914E0460913F0480
:103AA00080918704909188040E9401082091AA05C2
:103AB00040914D0460913F04809187049091880467
:103AC0000E940108412C512C7FE7672E73EC772E62
:103AD0004092E7045092E8046092E9047092EA048C
:103AE000C12CD12CEFE7EE2EE3E4FE2EC092EB04C6
:103AF000D092EC04E092ED04F092EE048091EF0499
:103B00000091C3041091C404D8018D909D90AD9094
:103B1000BC90882311F40C94F827A7019601C501E5
:103B2000B4010E94252B181634F5F801C082D18209
:103B3000E282F3828090DB049090DC04A090DD04AC
:103B4000B090DE04C090EB04D090EC04E090ED0463
:103B5000F090EE04A7019601C501B4010E94252B47
:103B60001816D4F4C092DB04D092DC04E092DD0499
:103B7000F092DE0421C020E030E04FE753ECC501B5
:103B8000B4010E94862887FFD5CFD8014D925D925F
:103B90006D927C921397CECFC090E704D090E8044A
:103BA000E090E904F090EA04A7019601C501B40190
:103BB0000E94862887FDD6CF11E01093EF04109362
:103BC000070581E090E0909305058093040510932C
:103BD00006050E94AB026093110570931205809355
:103BE000130590931405C0908005D0908105E09056
:103BF0008205F0908305A70196016091840570917C
:103C0000850580918605909187050E94102A20E005
:103C100030E040E05FE30E94EC28A70196010E949B
:103C2000112A60938E0570938F0580939005909371
:103C300091058091A2059091A305A091A405B09152
:103C4000A5058093AF059093B005A093B105B093FF
:103C5000B2050E94AB022091770530917805621B76
:103C6000730B8109910960937105709372058093BC
:103C70007305909374056AE278E090E080E00E941A
:103C80000101882309F4B4C110937F0581E080937A
:103C90007E056091750570917605665F7F4F90E0B7
:103CA00080E00E94780210928A0510928B05109293
:103CB0008C0510928D051092AB051092AC051092F8
:103CC000AD051092AE0510929705109298051092CE
:103CD000990510929A0561E08DE00E94BA0181E099
:103CE000809320060E94AB020091100610911106ED
:103CF0002091120630911306AB01BC01401B510B01
:103D0000620B730B80911C0690911D06B0E0A0E041
:103D100010E084179507A607B70708F46CC1109246
:103D200020060E94AB02009171051091720520914E
:103D3000730530917405AB01BC01401B510B620B44
:103D4000730B8091770590917805209175053091DE
:103D50007605821B930BB0E0A0E0481759076A076D
:103D60007B0708F4FDC080917E05882309F457C2C3
:103D70000E94AB02009171051091720520917305AC
:103D800030917405AB01BC01401B510B620B730BEE
:103D90008091770590917805B0E0A0E04817590729
:103DA0006A077B0708F43BC20E94AB02609371056F
:103DB00070937205809373059093740580917F05CD
:103DC000811147C21092790510927C0510927D05F1
:103DD00087E599E09CA38BA31EA21DA26BA17CA1E9
:103DE0008DA19EA10E940101882309F449C281E0AE
:103DF00080939B0580939D0510927E058091B3056D
:103E0000882309F4ADC010917B05E0900504F09083
:103E100006048090AF059090B005A090B105B090D9
:103E2000B205C0909C0580918E0590918F05A09160
:103E30009005B09191058F87988BA98BBA8B809153
:103E4000AB059091AC05A091AD05B091AE058B8B03
:103E50009C8BAD8BBE8B00919B054090970550903D
:103E600098056090990570909A0580918A059091C7
:103E70008B05A0918C05B0918D058F8B988FA98FA4
:103E8000BA8FD09079056EE58FE393E00E941E0310
:103E900064E68FE393E00E941E036CE78FE393E0F8
:103EA0000E941E03DD2009F4F0C1D70113962C9166
:103EB0004F89588D698D7A8D8FE393E00E94380C7D
:103EC0006CE78FE393E00E941E03DD2009F4E3C159
:103ED000F7012481B301A2018FE393E00E94380C23
:103EE0006CE78FE393E00E941E03002309F4D9C11D
:103EF000D70115962C914B895C896D897E898FE35A
:103F000093E00E94380C6CE78FE393E00E941E035D
:103F1000112309F4CCC1F70123814F8558896989A0
:103F20007A898FE393E00E94380C6CE78FE393E08B
:103F30000E941E03CC2009F4C0C1D70115962C9114
:103F4000B501A4018FE393E00E94380C60E48FE395
:103F500093E00E941E036AE08FE393E00E941E0339
:103F600080917B05882361F180917905882309F48C
:103F7000B5C380917D05882319F110927D0580914C
:103F80007A05882309F4A2C110927A0580918A05E6
:103F900090918B05A0918C05B0918D058093D704ED
:103FA0009093D804A093D904B093DA040E94AB0292
:103FB0006093C7047093C8048093C9049093CA04A3
:103FC000E0910405F09105053197E930F10508F01D
:103FD000FAC3E151F04E809107050C940E2D762323
:103FE0008C24CA2400252825EF254626F526F5260B
:103FF00010927F054BCE80911A06181760F4E0915D
:104000001606F0911706E10FF11D62E080810E9413
:10401000BA011F5FF0CF912C80911B06981608F013
:1040200063C0E92CF12CE0911806F0911906EE0D11
:10403000FF1D61E080810E94BA01E0911806F091B5
:104040001906EE0DFF1D60E080810E948C0181E069
:1040500090E0A0E0B0E0092C04C0880F991FAA1FCF
:10406000BB1F0A94D2F75C016C01C094D094812CE0
:1040700080911A06881608F5082D10E0E0911606C2
:10408000F0911706E00FF11F80810E9463010C5F21
:104090001F4F000F111FF801EC54FA4F892B41F408
:1040A000808191818A299B29918380838394E0CFA9
:1040B000808191818C219D21F7CFE0911806F091AC
:1040C0001906EE0DFF1D61E080810E948C01809138
:1040D000180690911906E80EF91E60E0F70180813C
:1040E0000E94BA01939498CF44EBE42E45E0F42E5D
:1040F0006701D6015F968D919C919097892B59F419
:104100005C961C925C97EFEFFFEF5E96FC93EE934C
:104110005D9791961C92F6E0CF0ED11C20EF35E012
:104120002C153D0531F7B12C80911A06B81608F010
:1041300051C0A12C0B2D10E0000F111F04541A4F79
:1041400020911B06A21608F043C0D8016D917C9106
:104150000A2C02C0769567950A94E2F7B29E900108
:1041600011242A0D311DE4EBF5E080E0458D568DDC
:104170002417350709F476C78F5F36968A30B1F772
:1041800060FF24C0E4EBF5E090E080E0448D411155
:1041900018C0E0911406F0911506E20FF31F40815C
:1041A000B6E0B89FF001B99FF00D1124EC54FA4F1E
:1041B000448F368F258F10A2178E61E00E94B702C0
:1041C00005C0019636968A30910501F7A394B8CFC1
:1041D000B394AACF10E0F70181A18111182FF6E066
:1041E000EF0EF11CCE14DF04B1F70E94AB02609316
:1041F00010067093110680931206909313061123F4
:1042000009F48DCD8091D505882309F488CD80915E
:10421000D3059091D405019709F081CD82CD80918D
:104220007E0581119DCEEAE2F8E0F8A3EF8F1AA295
:1042300019A26F8D78A189A19AA10E9401018823FA
:1042400009F441C081E080937F0581E080937E0581
:1042500087CE2BEB39E038A72FA31AA619A66FA19A
:1042600078A589A59AA50E940101882309F4AACD01
:1042700081E08093790580937C0580937D05A8CDAE
:1042800010929B0510929D05B7CD65E68FE393E0F4
:104290000E941E0315CE65E68FE393E00E941E0385
:1042A0001FCE65E68FE393E00E941E032CCE69E6E5
:1042B0008FE393E00E941E0338CE69E68FE393E01C
:1042C0000E941E0343CE10927F05BFCF0E94AB0217
:1042D0006F87788B898B9A8B8091C7049091C804E3
:1042E000A091C904B091CA048F849888A988BA881B
:1042F000881A990AAA0ABB0A8092CB049092CC042D
:10430000A092CD04B092CE042090C1043090C2049B
:10431000E091C504F091C604D1012D913D914D91DC
:104320005C9160817181828193810E94102A6B016E
:104330007C01C092D304D092D404E092D504F092D0
:10434000D6042091D7043091D8044091D9045091DB
:10435000DA04F10160817181828193810E94102AC7
:104360002B013C014092CF045092D0046092D104C2
:104370007092D204C501B4010E948B286B8B7C8B98
:104380008D8B9E8B2091B5043091B6044091B7047B
:104390005091B8040E94EC28A70196010E94EC28D5
:1043A0002091DB043091DC044091DD045091DE0467
:1043B0000E94112A4B015C018092DB049092DC0484
:1043C000A092DD04B092DE041091F00411111AC025
:1043D0002091B1043091B2044091B3045091B404DF
:1043E000C301B2010E94EC289B01AC01C501B401DC
:1043F0000E94102A6093DB047093DC048093DD0438
:104400009093DE048091DB049091DC04A091DD04A4
:10441000B091DE048F8B988FA98FBA8F8090EB04B8
:104420009090EC04A090ED04B090EE04A5019401EE
:10443000BC01CD010E94252B18160CF062C08092A1
:10444000DB049092DC04A092DD04B092DE04112320
:1044500009F47AC0A70196016091B1047091B20489
:104460008091B3049091B4040E94EC286093DF041F
:104470007093E0048093E1049093E2042B893C89DB
:104480004D895E896091B9047091BA048091BB0432
:104490009091BC040E947D2AA30192010E94EC2805
:1044A0009B01AC016091DB047091DC048091DD0420
:1044B0009091DE040E94102A2091DF043091E004E4
:1044C0004091E1045091E2040E94112A6B017C01A9
:1044D000C092DF04D092E004E092E104F092E204A2
:1044E000AC019B01C501B4010E94862887FF35C03D
:1044F0008092DF049092E004A092E104B092E20482
:104500003CC08091E7049091E804A091E904B09147
:10451000EA048B8F9C8FAD8FBE8F9C01AD016F899C
:10452000788D898D9A8D0E94862887FF90CF8B8DFC
:104530009C8DAD8DBE8D8093DB049093DC04A093A5
:10454000DD04B093DE0483CF1092DF041092E00408
:104550001092E1041092E20491CF8090E7049090D1
:10456000E804A090E904B090EA04A5019401C70111
:10457000B6010E94862887FDBBCF8091DF04909111
:10458000E004A091E104B091E204E091C304F09151
:10459000C40480839183A283B383F10180819181DC
:1045A000A281B3818093D7049093D804A093D904B7
:1045B000B093DA048F859889A989BA898093C70452
:1045C0009093C804A093C904B093CA04C090920504
:1045D000D0909305E0909405F09095056091880542
:1045E00070E090E080E00E948D284B015C01AC01FE
:1045F0009B01C701B6010E94252B87FD33C061E0F6
:1046000080916D050E948C0160E080916C050E9494
:104610008C01C0909205D0909305E0909405F090A5
:1046200095056091890570E090E080E00E948D28FA
:104630009B01AC01C701B6010E94252B87FD06C076
:104640008FEF809396056FEF70E007C0C701B6014A
:104650000E94F62A6093960570E080916B050E9497
:10466000F601AECC20E030E0A901C701B6010E94FE
:10467000862887FF20C0A70196015058C501B401C4
:104680000E9486281816BCF061E080916C050E949B
:104690008C0160E080916D050E948C01C0909205B4
:1046A000D0909305E0909405F0909505F7FAF0947A
:1046B000F7F8F094B6CF1092960570E060E0809124
:1046C0006B050E94F60160E080916C050E948C01F0
:1046D00060E080916D050E948C0172CC80917A051A
:1046E00081116ECC81E080937A05E7CF882309F4AD
:1046F00086C0109207050E949F0760E086E00E9436
:10470000DC068BE991E00E94790B61E080E00E9479
:10471000DC0684EA91E00E94790B6091380586E01E
:104720000E94DC0689EB91E00E94790B60913905CB
:1047300085E00E94DC0686EC91E00E94790B809176
:104740007905882309F447C060918A0570918B052B
:1047500080918C0590918D05E0903805009137058A
:1047600020911B05409160050E94E21480919C05F8
:10477000882309F441C020913905409137053091D3
:104780001B0590919B05992389F16091AB05709170
:10479000AC058091AD059091AE05E22E042F232F3C
:1047A000409162050E94E21481E0809316050E9408
:1047B000830B0E94AB0260931705709318058093DA
:1047C000190590931A050E948F03882309F487CA5C
:1047D0000E94A31384CA2091380540913705609147
:1047E0001B058DE295E00E94F60BC0CF632F8DE292
:1047F00095E00E94F60BD8CF0E94AC0BD5CF8091EC
:104800007905882309F46BC080917C058823A1F089
:1048100060918A0570918B0580918C0590918D0532
:10482000E09038050091370520911B054091600507
:104830000E94E21410927C0580919C05882309F463
:1048400064C080919B05882309F454C080919D0524
:104850008823A1F06091AB057091AC058091AD0506
:104860009091AE05E09039050091370520911B0528
:10487000409162050E94E21410929D050E94AB02D5
:1048800000911705109118052091190530911A050E
:10489000AB01BC01401B510B620B730B80911C05DB
:1048A00090911D05B0E0A0E0481759076A077B0703
:1048B00008F489CF0E94AB02609317057093180526
:1048C0008093190590931A0580911605882301F1AC
:1048D00010921605809116050E94830B74CF2091CB
:1048E00038054091370560911B058DE295E00E94E7
:1048F000F60BA2CF209139054091370560911B0539
:104900008DE295E00E94F60BB9CF0E94AC0BB6CFBA
:1049100081E080931605DECF882309F454CF1092EE
:1049200007050E949F0760E080E00E94DC0686ED9C
:1049300091E00E94790B61E080E00E94DC0684EA4D
:1049400091E00E94790B62E080E00E94DC068BEE31
:1049500091E00E94790B63E080E00E94DC0687EF23
:1049600091E00E94790B82E08D8383E189839E012F
:104970002B5F3F4FAE014F5F5F4F60E675E08EE803
:1049800095E00E949A1463E083E10E94DC060E9495
:10499000600719CF882309F416CF109207050E94EB
:1049A0009F0760E082E00E94DC0683E092E00E94C4
:1049B000790B61E080E00E94DC0684EA91E00E94CD
:1049C000790B62E080E00E94DC068BEE91E00E94B1
:1049D000790B63E080E00E94DC0687EF91E00E94A3
:1049E000790B82E08D8383E189839E012B5F3F4FAA
:1049F000AE014F5F5F4F62E675E08FEA95E0C1CF91
:104A0000882309F4E0CE109207050E949F0760E01A
:104A100080E00E94DC0683E192E00E94790B61E075
:104A200080E00E94DC0688E292E00E94790B62E05E
:104A300080E00E94DC068CE392E00E94790B63E048
:104A400080E00E94DC0680E592E00E94790BBBCEFC
:104A5000882309F49AC0109207050E949F0760E01E
:104A600080E00E94DC0685E692E00E94790B60E01F
:104A70008CE00E94DC0680913D0561E3811101C05C
:104A800062E384E994E00E941E0361E080E00E94FA
:104A9000DC068AE792E00E94790B62E083E00E94E4
:104AA000DC068AE892E00E94790B63E082E00E94D3
:104AB000DC0686E992E00E94790BAE014B5F5F4F06
:104AC000BE01675F7F4F80913D050E948D0F882357
:104AD00009F44AC011E01E8788E08D878D819E8190
:104AE000AF81B88589839A83AB83BC839E01225FA3
:104AF0003F4FAE01435F5F4F60E675E0CE01019628
:104B00000E949A141E8783E18D8789859A85AB85DB
:104B1000BC8589839A83AB83BC839E01225F3F4F10
:104B2000AE01435F5F4F60E675E0CE0101960E94E3
:104B30009A1482E08E8783E18D8780912F04909173
:104B40003004A0913104B091320489839A83AB83FD
:104B5000BC839E01225F3F4FAE01435F5F4F60E623
:104B600075E0CE0101960DCF61E085E00E94DC0684
:104B700083EA92E00E94790B61E080E10E94DC060A
:104B800083EA92E00E94790BD4CF80917905882343
:104B9000D9F080917C05882309F415CE0E9458072E
:104BA00060912F047091300480913104909132040F
:104BB00022E0E22E03E120913A05409160050E9437
:104BC000E21410927C05DFCE0E94580722E043E1F8
:104BD00060913A058DE295E00E94F60BD4CE8823D1
:104BE00079F1109207050E949F0760E081E00E9422
:104BF000DC0687EA92E00E94790B61E080E00E9487
:104C0000DC068AEB92E00E94790B62E081E00E9470
:104C1000DC068FEC92E00E94790B63E080E00E945A
:104C2000DC0682EE92E00E94790B0E94AB02609358
:104C30003E0570933F058093400590934105C3CD99
:104C40000E94AB0200913E0510913F052091400566
:104C500030914105AB01BC01401B510B620B730B42
:104C600080913B0590913C05B0E0A0E048175907C2
:104C70006A077B0708F4A7CD81E08093070584E0ED
:104C800090E090930505809304059DCD882339F12C
:104C9000109207050E949F0760E080E00E94DC06FA
:104CA0008CE591E00E94790B61E082E00E94DC06D5
:104CB00087EF92E00E94790B62E086E00E94DC06BA
:104CC00087E093E00E94790B63E080E00E94DC06BD
:104CD0008CE591E00E94790B0E94811574CD0E94B1
:104CE000AB0210911505A12FA150BB0B48EE53E06C
:104CF000A49F6001A59FD00CB49FD00C11240D2C53
:104D0000000CEE08FF0880900D0590900E05A09015
:104D10000F05B0901005C818D908EA08FB08C60EA0
:104D2000D71EE81EF91E4091F6045091F70470E07A
:104D300060E0C416D506E606F70668F11150109338
:104D4000150511114FC080910805882399F111E0D4
:104D500010930A0560E080916F050E948C0110920B
:104D60007B051092960570E060E080916B050E94D3
:104D7000F60160E080916C050E948C0160E08091FA
:104D80006D050E948C011093070581E090E09093DF
:104D9000050580930405E0910904F0910A04878DCC
:104DA00090A1039709F00FCD81E08093070581E082
:104DB00090E067CF80910905882369F381E08093B3
:104DC0000B058091F104181748F460E085E094E049
:104DD0000E94A70A811102C01F5FF3CF81E0809378
:104DE0000705D3CF0E948115D6CF882309F473C05D
:104DF000109207050E949F0760E080E00E94DC0699
:104E00008CE591E00E94790B61E082E00E94DC0673
:104E100080910405909105050897D9F581E193E00B
:104E20000E94790B62E080E00E94DC0684E495E059
:104E30000E94790B2AE435E0F90101900020E9F79E
:104E40009F012B54354062E084E1821B0E94DC0606
:104E50008AE495E00E94790B20910C05809104056D
:104E600090910505222309F1409160050897A1F46E
:104E700060918005709181058091820590918305F4
:104E80000E94AF1563E080E00E94DC068CE591E0B3
:104E9000DCCD82E293E0C4CF6091840570918505FA
:104EA0008091860590918705EBCF40916205089728
:104EB00049F460919E0570919F058091A0059091A5
:104EC000A105DECF6091A2057091A3058091A40594
:104ED0009091A505D5CF0E94AB02A0915A050091F3
:104EE0005B0510915C0520915D0530915E056B01BD
:104EF0007C01C01AD10AE20AF30A4A2F50E04F5F40
:104F00005F4FE0915605F09157054E9F90014F9FDE
:104F1000300D5E9F300D1124A90170E060E0C416D1
:104F2000D506E606F70608F44ECC81E08A0F80939A
:104F30005A05909158058917D8F58091590588230D
:104F4000D9F01092590562E080E00E94DC0680E50D
:104F500095E00E94790B20E535E0D9010D90002005
:104F6000E9F79D012155354062E084E1821B0E94F2
:104F7000DC0680E595E069CD81E08093590562E02B
:104F800080E00E94DC0684E495E00E94790B2AE42C
:104F900035E0F90101900020E9F79F012B543540DD
:104FA00062E084E1821B0E94DC068AE495E04DCD3C
:104FB00010926705109268051092690510926A05B3
:104FC00010926405109265051092660510926305B3
:104FD00080910C05882331F081E08093070582E001
:104FE00090E04FCE81E08093070583E090E049CECA
:104FF0008092DB049092DC04A092DD04B092DE0487
:10500000E091C104F091C20480819181A281B381B9
:105010008093D7049093D804A093D904B093DA0472
:1050200020E030E04FE753E4C501B4010E94252B96
:10503000181614F40C94B21D20E030E04FE753EC46
:10504000C501B4010E94862887FD02C00C94DC1DB6
:105050004092DB045092DC046092DD047092DE0426
:105060000C94DC1D6170AAC8FC0188279927E8947C
:1050700021912032E9F3293010F02E30C8F32B3281
:1050800041F02D3239F4689404C00E947E28820FCA
:10509000911D219120532A30C0F31EF490958195E3
:1050A0009F4F089540E457E00E9457280895FA0161
:1050B000A191B081009719F41097E1F0CD01DC01C6
:1050C000CD010D90002011F4C00113C0FB0121910E
:1050D000222319F02015D9F7F3CFFB0121912015D8
:1050E00019F41E92119606C02223C1F70D900020DC
:1050F000A1F7D001FA01A193B08308957AE0979FB8
:10510000902D879F802D910D112408950E94C8280D
:1051100008F481E00895E89409C097FB3EF4909567
:105120008095709561957F4F8F4F9F4F9923A9F080
:10513000F92F96E9BB279395F6958795779567950F
:10514000B795F111F8CFFAF4BB0F11F460FF1BC053
:105150006F5F7F4F8F4F9F4F16C0882311F096E9E6
:1051600011C0772321F09EE8872F762F05C0662394
:1051700071F096E8862F70E060E02AF09A95660F4D
:10518000771F881FDAF7880F9695879597F9089506
:10519000990F0008550FAA0BE0E8FEEF1616170648
:1051A000E807F907C0F012161306E407F50798F0B0
:1051B000621B730B840B950B39F40A2661F0232BC9
:1051C000242B252B21F408950A2609F4A140A69545
:1051D0008FEF811D811D08950E94FF280C94702976
:1051E0000E94622938F00E94692920F0952311F06D
:1051F0000C9459290C945F2911240C94A4290E9421
:10520000812970F3959FC1F3950F50E0551F629F60
:10521000F001729FBB27F00DB11D639FAA27F00D0F
:10522000B11DAA1F649F6627B00DA11D661F829F36
:105230002227B00DA11D621F739FB00DA11D621F1B
:10524000839FA00D611D221F749F3327A00D611D38
:10525000231F849F600D211D822F762F6A2F11241A
:105260009F5750409AF0F1F088234AF0EE0FFF1F4D
:10527000BB1F661F771F881F91505040A9F79E3FA4
:10528000510580F00C9459290C94A4295F3FE4F354
:10529000983ED4F3869577956795B795F795E795FA
:1052A0009F5FC1F7FE2B880F911D9695879597F903
:1052B000089597F99F6780E870E060E008959FEF98
:1052C00080EC089500240A9416161706180609069D
:1052D000089500240A94121613061406050608956C
:1052E000092E0394000C11F4882352F0BB0F40F4F4
:1052F000BF2B11F460FF04C06F5F7F4F8F4F9F4F34
:10530000089557FD9058440F551F59F05F3F71F0B5
:105310004795880F97FB991F61F09F3F79F087951C
:105320000895121613061406551FF2CF4695F1DFA5
:1053300008C0161617061806991FF1CF8695710535
:10534000610508940895E894BB2766277727CB0169
:1053500097F90895F999FECF92BD81BDF89A9927E2
:1053600080B50895262FF999FECF1FBA92BD81BD51
:1053700020BD0FB6F894FA9AF99A0FBE01960895D7
:10538000052E97FB1EF400940E94D72957FD07D0E5
:105390000E94DF2907FC03D04EF40C94D7295095C6
:1053A0004095309521953F4F4F4F5F4F0895909511
:1053B0008095709561957F4F8F4F9F4F0895A1E223
:1053C0001A2EAA1BBB1BFD010DC0AA1FBB1FEE1F7F
:1053D000FF1FA217B307E407F50720F0A21BB30BCA
:1053E000E40BF50B661F771F881F991F1A9469F746
:1053F00060957095809590959B01AC01BD01CF01A2
:105400000895A29FB001B39FC001A39F700D811D9D
:105410001124911DB29F700D811D1124911D0895BD
:105420005058BB27AA270E94282A0C9470290E9452
:10543000622938F00E94692920F039F49F3F19F45D
:1054400026F40C945F290EF4E095E7FB0C9459299F
:10545000E92F0E94812958F3BA176207730784075E
:10546000950720F079F4A6F50C94A3290EF4E095A5
:105470000B2EBA2FA02D0B01B90190010C01CA010E
:10548000A0011124FF27591B99F0593F50F4503EB9
:1054900068F11A16F040A22F232F342F4427585FAB
:1054A000F3CF469537952795A795F0405395C9F7C3
:1054B0007EF41F16BA0B620B730B840BBAF091507B
:1054C000A1F0FF0FBB1F661F771F881FC2F70EC01A
:1054D000BA0F621F731F841F48F4879577956795ED
:1054E000B795F7959E3F08F0B0CF9395880F08F0D9
:1054F0009927EE0F9795879508950E94912A0C940D
:1055000070290E94692958F00E94622940F029F40C
:105510005F3F29F00C94592951110C94A4290C9443
:105520005F290E94812968F39923B1F3552391F3F0
:10553000951B550BBB27AA2762177307840738F002
:105540009F5F5F4F220F331F441FAA1FA9F335D05F
:105550000E2E3AF0E0E832D091505040E695001C13
:10556000CAF72BD0FE2F29D0660F771F881FBB1FCD
:10557000261737074807AB07B0E809F0BB0B802DAB
:10558000BF01FF2793585F4F3AF09E3F510578F0D7
:105590000C9459290C94A4295F3FE4F3983ED4F36A
:1055A000869577956795B795F7959F5FC9F7880FAB
:1055B000911D9695879597F90895E1E0660F771FFD
:1055C000881FBB1F621773078407BA0720F0621B8E
:1055D000730B840BBA0BEE1F88F7E09508950E94B9
:1055E000F62A6894B1110C94A42908950E9489297F
:1055F00088F09F5798F0B92F9927B751B0F0E1F094
:10560000660F771F881F991F1AF0BA95C9F714C043
:10561000B13091F00E94A329B1E008950C94A32920
:10562000672F782F8827B85F39F0B93FCCF386957C
:1056300077956795B395D9F73EF4909580957095D9
:1056400061957F4F8F4F9F4F08950E94C82808F49F
:105650008FEF08950E943A2B29ED3BE54EED5EE376
:105660000C94EC2816F00C94372C0C945F29689459
:105670000C9459290E948929A8F39923C1F3AEF308
:10568000DF93CF931F930F93FF92C92FDD278823BA
:105690002AF02197660F771F881FDAF720E030E0A5
:1056A00040E85FEB9FE3883920F0803E38F0219698
:1056B0008F770E94112AE8E6F0E004C00E94112AC8
:1056C000E5E9F0E00E94452C8B01BE01EC01FB2EC8
:1056D0006F5771097595771F880B990B0E948D285C
:1056E00028E132E741E35FE30E94FF28AF2D9801F4
:1056F000AE01FF900F911F91CF91DF910E94282A58
:105700000C947029FA01EE0FFF1F30962105310528
:10571000A1F16115710561F48038BFE39B0749F180
:1057200068949038810561F08038BFEF9B0741F0A5
:1057300099234AF5FF3FE1053105210519F1E89468
:105740000894E795D901AA2329F4AB2FBE2FF85F5F
:10575000D0F310C0FF5F70F4A695E0F7F73950F072
:1057600019F0FF3A38F49F779F930DD00F9007FC04
:105770009058089546F00C945F2960E070E080E84E
:105780009FE308954FE79F775F934F933F932F9346
:105790000E943A2B2F913F914F915F910E94EC28EC
:1057A0000C94EA2B0E946C2C30F09F3710F40C9470
:1057B000A4290C941C2C0C94372C0E94C828880B0C
:1057C000990B089529F416F00C9459290C94A329E7
:1057D0000C945F290E948929A8F39638A0F707F84E
:1057E0000F92E8942BE33AEA48EB5FE70E94022924
:1057F0000F920F920F924DB75EB70F920E94C62C78
:10580000E2ECF0E00E94452C4F915F91EF91FF9107
:10581000E595EE1FFF1F49F0FE57E0684427EE0FA5
:10582000441FFA95E1F74195550B0E94902C0F907B
:1058300007FE0C94842C0895882371F4772321F0BB
:105840009850872B762F07C0662311F499270DC037
:105850009051862B70E060E02AF09A95660F771FD2
:10586000881FDAF7880F9695879597F908959F3FD7
:1058700031F0915020F4879577956795B795880F0B
:10588000911D9695879597F90895DF93CF931F9370
:105890000F93FF92EF92DF927B018C01689406C018
:1058A000DA2EEF010E94FF28FE01E894A5912591D0
:1058B000359145915591A6F3EF010E94282AFE01EA
:1058C0009701A801DA9469F7DF90EF90FF900F91AC
:1058D0001F91CF91DF9108950E948929A0F0BEE722
:1058E000B91788F4BB279F3860F41616B11D672FCF
:1058F000782F8827985FF7CF869577956795B11DA4
:1059000093959639C8F308959B01AC0160E070E06F
:1059100080E89FE30C947D2A0C9459290C94372C31
:105920000E948929D8F39923C9F3940F511DA3F339
:105930009150504094F059F0882332F0660F771F51
:10594000881F91505040C1F79E3F51052CF7880F9A
:10595000911D9695879597F908955F3FACF0983E15
:105960009CF0BB27869577956795B79508F4B1604D
:105970009395C1F7BB0F58F711F460FFE8CF6F5F45
:105980007F4F8F4F9F4FE3CF0C94A429FA01DC0186
:10599000AA0FBB1F9B01AC01BF5728F42227332756
:1059A0004427507820C0B75190F4AB2F002446957F
:1059B00037952795011CA395D2F3002071F0220F93
:1059C000331F441FB395DAF30ED00C94102A6130C4
:1059D0007105A0E88A07B94630F49B01AC0166273F
:1059E000772788279078309621F02083318342836F
:1059F00053830895AA1BBB1B51E107C0AA1FBB1FFD
:105A0000A617B70710F0A61BB70B881F991F5A954A
:105A1000A9F780959095BC01CD010895EE0FFF1F69
:105A20000590F491E02D0994FC018191861721F0F5
:105A30008823D9F7992708953197CF010895FB015D
:105A4000DC0101900D920020E1F70895FB01DC01DB
:105A50004150504048F001900D920020C9F701C01C
:0E5A60001D9241505040E0F70895F894FFCF9A
:105A6E000402060B030807053132337334353668EA
:105A7E00373839662E306478000040001400540028
:105A8E00F401E803D00700000000BB032503520316
:105A9E00080483036103750300000000DE07A307FB
:105AAE00290428045A0D00000000130317031B03DA
:105ABE006E616E00696E66006F7666002A2A2A2A6B
:105ACE002A2A2A2A2A2A2A2A2A2A2A2A2A2A2A2A28
